:020000040800F2
:10000000700A0020F1010008D3200008CD1F00086D
:10001000D1200008A107000879280008000000008E
:10002000000000000000000000000000D7200008D1
:100030006B08000800000000D5200008D920000847
:100040000B0200080B0200080B0200080B0200085C
:100050000B0200080B0200080B0200080B0200084C
:100060000B0200080B0200080B020008A50700089D
:10007000B10700080B0200080B0200080B02000881
:100080000B020008000000000B0200080B02000831
:100090000B0200080B0200080B0200080B0200080C
:1000A0000B0200080B0200080B0200080B020008FC
:1000B0000B0200080B0200080B0200080B020008EC
:1000C0000B0200080B0200080B0200080B020008DC
:1000D0000B0200080B0200080B0200086D28000844
:1000E0000B0200080B0200080B0200080B020008BC
:1000F0000B0200080B0200080B02000800000000C1
:10010000000000000B020008000000000B020008C5
:100110000B020008000000000B0200080B020008A0
:100120000B0200080B0200080B0200080B0200087B
:100130000B02000800000000000000000B02000895
:100140000B0200080B020008000000000000000085
:10015000000000000000000000000000000000009F
:100160000000000000000000000000000B0200087A
:100170000B0200080000000000000000000000006A
:10018000000000000B02000800000000000000005A
:10019000000000000000000000000000000000005F
:1001A00000000000000000000B0200080B02000825
:1001B0000B0200080B0200080B0200080000000000
:1001C000000000000B02000800000000000000001A
:1001D0000B0200080B020008DFF810D000F04AFA0A
:1001E0000048004781310008AFF30080700A00200A
:1001F0000648804706480047FEE7FEE7FEE7FEE7C1
:10020000FEE7FEE7FEE7FEE7FEE7FEE74521000822
:10021000D90100082DE9F05F0546002092469B4673
:1002200088460646814640241BE02846414647460C
:10023000224600F057F853465A46C01A914110D34F
:1002400011461846224600F03EF82D1A67EB0108C9
:100250004F4622460120002100F035F817EB000937
:100260004E41201EA4F10104DFDC484631462A46F7
:100270004346BDE8F09FD2B201E000F8012B491ED1
:10028000FBD270470022F6E710B513460A46044633
:100290001946FFF7F0FF204610BD30B50B4601466A
:1002A00000202022012409E021FA02F59D4205D315
:1002B00003FA02F5491B04FA02F52844151EA2F1BF
:1002C0000102F1DC30BD202A04DB203A00FA02F101
:1002D000002070479140C2F1200320FA03F3194334
:1002E00090407047202A04DB203A21FA02F00021D6
:1002F000704721FA02F3D040C2F120029140084336
:10030000194670472DE9FE4F804681EA0300C00F71
:100310000C46009021F0004123F00045B8EB0200AC
:10032000A94105D24046214690461C460B4602464E
:1003300023F00040104347D0270DC7F30A00C3F352
:100340000A510290401A019040286BDAC3F313005F
:1003500040F4801B0098924620B10023D2EB030AA0
:1003600063EB0B0B01985946C0F140025046FFF772
:10037000AAFF06460D4650465946019A00F08CF9F0
:1003800010EB08006141002487EA115284EAE77308
:100390001A4340D0009A62B3019A012A4FEA0752E9
:1003A00015DC001B61EB02014FF0004202EA07522C
:1003B000CDE90042001C41F5801132462B4600F089
:1003C0008CF903B0BDE8F08F40462146F9E7001BE9
:1003D00061EB0201001C41F5801300185B412018FD
:1003E000A2F5001747EB030140EAD570B6196D413D
:1003F00011E06D084FEA360645EAC0754FEA07522C
:10040000001B61EB0201001C41F5801149084FEA15
:1004100030000019514132462B4603B0BDE8F04F81
:1004200000F04CB90098012240000023D0EB0202FA
:1004300063EBE073009821464FEAE074B8EB0000EC
:1004400061EB0401E9E783F000435BE781F00041E1
:1004500058E72DE9FE4F81EA030404F0004421F03F
:10046000004100944FF0000B23F0004350EA0104D8
:100470005ED052EA03045BD0C3F30A54C1F30A55B9
:100480002C44A4F2F3340194A0FB0254C1F31301F1
:1004900041F48011C3F3130343F4801301FB0244BE
:1004A00000FB034E840A970A44EA815447EA8357C3
:1004B000A4FB076802958D0A05FB07854FEA932C7C
:1004C00004FB0C542705029D4FEA065847EA1637ED
:1004D000B5EB08056EEB070C870E920E47EA811705
:1004E00042EA8312A7FB0201B6EB0B0164EB0004A6
:1004F0002B0D43EA0C335E1844EB1C50DA46514690
:10050000E7FB0201C5F313044FEA0B3343EA14532C
:100510004FEA0432019C43EA0603A4F10C0402945E
:10052000009CCDE900B400F0D8F803B0BDE8F08F2E
:1005300000200146F9E72DE9F04D81EA030404F0BB
:10054000004B21F0004514464FF0000A23F0004113
:1005500050EA050220D054EA01021DD0C5F30A5723
:100560000246C5F31303C1F31300C1F30A5640F466
:10057000801543F48013A7EB0608101BD64608F23B
:10058000FD3873EB050002D308F1010801E0921871
:100590005B41B8F1000F03DA00200146BDE8F08DA1
:1005A00000204FF48011064684460EE0171B73EBC3
:1005B000050705D3121B63EB050306434CEA010C48
:1005C00049084FEA300092185B4150EA0107EDD12B
:1005D00052EA030012D082EA040083EA05010843CC
:1005E00005D0101BAB4106D20122002306E00022F9
:1005F0004FF0004302E06FF0010253101AEB0600C7
:100600004CEB085110EB0A0041EB0B01BDE8F04D3B
:1006100000F054B8C1F30A52C1F3130140F2FF33A2
:1006200041F480119A4202DA00200146704740F2FC
:1006300033439A42A2F2334202DC5242FFF752BEE7
:10064000FFF741BE30B5041E71F1000404DB4FF02A
:100650000044404264EB0101141E73F1000405DB09
:100660001C464FF00043524263EB0403994208BF1B
:10067000904230BD064C074D06E0E06840F00103B3
:1006800094E8070098471034AC42F6D3FFF7A8FD72
:10069000E831000808320008202A06DBCB17203A90
:1006A00041FA02F043EAE07306E041FA02F3D04077
:1006B000C2F12002914008431946704710B5141E3C
:1006C00073F1000408DA401C41F1000192185B410B
:1006D0001A4301D120F0010010BD2DE9F04D9246E2
:1006E0009B4611B1B1FA81F202E0B0FA80F22032F9
:1006F0009046FFF7E8FD04460F4640EA0A0041EA4B
:100700000B0153465A46084313D0114653EA0100E1
:1007100019D0C8F140025046FFF7E4FD05460E46E9
:10072000504659464246FFF7CEFD084305D001200A
:1007300004E020463946BDE8F08D0020054346EA36
:10074000E0762C4337430A986305E40AA0EB0800DF
:100750000022FD0A44EA47540A3002D5002001462F
:10076000E9E7010510196941DDE90845001969410A
:10077000BDE8F04DA2E7000010B58022054906480B
:1007800001F0C9F805480068016821F00401016022
:1007900010BD0000E801002014000020A800002087
:1007A000FEE70000014800F0D7B80000A8000020D4
:1007B000014800F0D1B800000801002010B5016820
:1007C0000E4CCAB21423083AA14203D2B2FBF3F290
:1007D0000B4904E0B2FBF3F209492031921D436C4E
:1007E00002F01F0223F0030319448164044980319D
:1007F000C16401219140016510BD00000804024060
:10080000000802400179084A01F07F0102EB8102F1
:100810004265054A4432491E826501F01F020121EA
:100820009140C16570470000FC08024030B5D0E936
:1008300013456560446D14B1D0E91645656090F8C4
:10084000444004F01F050124AC40056C6C60046852
:1008500063608368102B036803D099600068C260EE
:1008600030BD9A600068C16030BD704772B6FEE767
:1008700010B5002140B190F825300122022B05D09F
:100880000421C163012124E0012010BD03681C681C
:1008900024F001041C6003681C6824F00E041C6032
:1008A000836C1C6824F480741C6090F84430046CE1
:1008B00003F01F0302FA03F36360D0E913345C60B2
:1008C000436D33B11C6824F480741C60D0E9163485
:1008D0005C6080F82520002280F82420084610BDA6
:1008E00070B590F82520002401212346022A07D064
:1008F0000422C26380F8251080F82430012429E006
:100900000268156825F0010515600268156825F074
:100910000E051560826C156825F48075156090F8D9
:100920004420056C02F01F0201FA02F26A60D0E96D
:1009300013255560426D32B1156825F48075156038
:10094000D0E91625556080F8251080F82430816B99
:1009500001B18847204670BDF0B4016C0C68016895
:100960000D6890F8442002F01F06042202FA06F3F4
:10097000234211D06B070FD50B689B0603D40B687D
:1009800023F004030B6090F8441001F01F018A402B
:10099000016C4A60016B1DE0022303FA06F727424F
:1009A0004FF0000C4FF0010218D0AF0716D50C68BD
:1009B000A40605D40C6824F00A040C6080F82520F5
:1009C00090F8441001F01F018B40016C4B6080F8DF
:1009D00024C0C16A00291AD0F0BC08470823B340DC
:1009E000234214D02B0712D50B6823F00E030B60A3
:1009F00090F84410036C01F01F0102FA01F15960F4
:100A0000C26380F8252080F824C0416BE2E7F0BC87
:100A10007047000070B504000CD02C4A21681420E7
:100A2000914209D22A4A0A44B2FBF0F08000606485
:100A300028480AE0012070BD244A52420A44B2FB11
:100A4000F0F080006064214808382064022084F8B7
:100A500025000A6847F6F0708243D4E90203184380
:100A6000D4E904352B431843A3691843E3691843B9
:100A7000236A1843104308602046FFF79FFEA068D2
:100A80000025B0F5804F00D165602079A16C00F0A1
:100A90007F000860D4E9130141606068401E0328AC
:100AA00008D82046FFF7AEFE606D0560D4E9160158
:100AB000416002E06565A565E565E563012084F8B0
:100AC000250084F82450002070BD00000804024076
:100AD000F8FFFDBF0000024070B5044690F8240006
:100AE000002501280CD0012084F8240094F825600A
:100AF0000020012E06D084F824000225284670BD6F
:100B0000022070BD022684F82560E0632068066834
:100B100026F0010606602046FFF788FE206B0028BD
:100B20002068016802D041F00E0106E021F00401C6
:100B300001602068016841F00A010160A06C016851
:100B4000C90303D5016841F480710160606D18B17B
:100B5000016841F4807101602068016841F0010181
:100B60000160CBE72DE9F04FDFF80C92002301265E
:100B70000325A9F1040B85B00F2709F1040AABF195
:100B8000040EF1E006FA03FC12EA0C027ED00C79A6
:100B900004F00304012C01D0022C20D184680094BD
:100BA0005C0005FA04F80494009C24EA080400940C
:100BB000D1F80C80049C08FA04F8009C48EA040868
:100BC000C0F80880446824EA0C0491F804C0CCF30F
:100BD000001C0CFA03FC4CEA040CC0F804C00C79AD
:100BE000E443A40702D18C68012C0ED0C4684FEAFC
:100BF000430805FA08FC24EA0C04D1F808C00CFAF2
:100C000008FC4CEA040CC0F80CC00C7904F0030496
:100C1000022C16D1DC0800EB840CCDF808C0DCF8FF
:100C200020C05C074FEAD46807FA08F42CEA040CE9
:100C30000C6904FA08F444EA0C04DDF808C0CCF8A6
:100C4000204004684FEA430805FA08FC24EA0C0433
:100C500091F804C00CF0030C0CFA08FC4CEA040CEC
:100C6000C0F800C04C6814F4403F7CD0434CD4F82A
:100C700060C04CF0010CC4F860C0246E23F0030C7B
:100C800004F0010400943E4C644400E06BE00294E4
:100C9000A4684FEA837C4FEA1C7807FA08FC24EA30
:100CA0000C04B0F1904F06D0DFF8D8C0604505D1F4
:100CB0004FF0010C20E04FF0000C1DE0DFF8C8C041
:100CC000604502D14FF0020C16E0DFF8C0C060456D
:100CD00002D14FF0030C0FE0DFF8B4C0604502D141
:100CE0004FF0040C08E0DFF8ACC0604502D14FF0D3
:100CF000050C01E04FF0060C0CFA08FC4CEA040C61
:100D0000029CC4F808C0D9F80040CC46D1F8048051
:100D100094435FEAC82800D51443CCF80040DAF8C1
:100D20000040D446D1F8048094435FEA882800D577
:100D30001443CCF80040DBF80040DC46D1F80480D6
:100D400094435FEA883800D51443CCF80040DEF8BD
:100D50000040F446D1F8048094435FEAC83800D5D7
:100D60001443CCF800405B1C0C682246DC407FF446
:100D700009AF05B0BDE8F08F080401400010024043
:100D8000000001400004004800080048000C004832
:100D900000100048001400480148806870470000B7
:100DA0000000002002488168426811448160704759
:100DB0000000002010B50024032000F073F80F207D
:100DC00000F008F808B1012401E000F025F8204601
:100DD00010BD000070B50E4E05460024706898B135
:100DE0004FF47A71B1FBF0F00A490968B1FBF0F0F9
:100DF00000F05EFD40B9102D06D200222946501E9B
:100E000000F030F8356000E00124204670BD00009D
:100E1000000000200C0000200A4882B0016E41F062
:100E200001010166016E01F001010091816D41F047
:100E300080518165806D00F08050009002B000F01C
:100E4000A1B8000000100240002809DB00F01F02DA
:100E5000012191404009800000F1E020C0F800111C
:100E600070470000F0B40E4B1B680C46C3F302231E
:100E7000C3F10705042D00D90425191D072901D246
:100E8000002300E0DB1E012606FA05F1491E214081
:100E900099409E40761E16403143F0BC01F0FEBCE6
:100EA0000CED00E0064900F0070208684FF6FF036A
:100EB000184040EA0220034A1043086070470000CF
:100EC0000CED00E00000FA052B492C4B0A6832219A
:100ED0004A432B4940B1B0F5007F086829D020F47F
:100EE000C06040F480602CE00868C0F34120022814
:100EF00004D051F8800F20F4807022E0D1F88000F7
:100F000020F48070C1F88000086820F4C06040F4CC
:100F100000700860B2FBF3F0401C00E0401E4A691C
:100F2000520501D50028F9D1486940050AD50320AA
:100F30007047C0F34120022806D051F8800F40F4DA
:100F40008070086000207047D1F8800040F4807005
:100F5000C1F88000086820F4C06040F400700860A8
:100F6000B2FBF3F0401C00E0401E4A695205DBD59D
:100F70000028F9D1D8E700000C00002040420F0003
:100F8000007000400248816841F4804181607047F0
:100F9000007000402DE9F8430446006800269D4D8E
:100FA00000035ED5A86D0027C00008D4A86D40F0EE
:100FB0008050A865A86D012700F080500090DFF8F0
:100FC0005892D9F8001041F48071C9F80010FFF769
:100FD000E3FE804606E000BFFFF7DEFEA0EB080060
:100FE00002282BD8D9F80000C005F5D5D5F8900017
:100FF00010F4407014D0216C814211D0D5F89000CB
:10100000D5F8901020F4407041F48031C5F890106C
:10101000D5F8901021F48031C5F89010C5F89000F3
:10102000C00711D0FFF7B8FE804641F2883907E0CB
:10103000FFF7B2FEA0EB0801494501D903260BE0FA
:10104000D5F890008007F3D5D5F89000216C20F4F6
:1010500040700843C5F890001FB1A86D20F0805083
:10106000A8652078C00707D0D5F88800616820F00F
:1010700003000843C5F888002078800707D5D5F815
:101080008800A16820F00C000843C5F8880020788B
:10109000400707D5D5F88800E16820F03000084304
:1010A000C5F888002078000707D5D5F888002169A1
:1010B00020F0C0000843C5F888002078800607D5D6
:1010C000D5F88800616920F440600843C5F88800BD
:1010D0002078400607D5D5F88800A16920F4405053
:1010E0000843C5F888002078000607D5D5F88800A1
:1010F000E16920F440400843C5F888002088C00515
:1011000007D5D5F88800216A20F440300843C5F897
:1011100088002088800507D5D5F88800616A20F40A
:1011200040200843C5F88800208840050FD5D5F831
:101130008800A16A20F440100843C5F88800A06A1E
:10114000B0F5801F03D1E86840F48010E860208883
:1011500000050FD5D5F88800E16A20F44000084367
:10116000C5F88800E06AB0F5800F03D1E86840F464
:101170008010E8602088C0040FD5D5F88800216B66
:1011800020F040700843C5F88800206BB0F1807FE4
:1011900003D1E86840F48010E86020884FF00061D7
:1011A00080040ED5D5F88800626B20F040601043B3
:1011B000C5F88800606B884203D1E86840F480106D
:1011C000E860208840040ED5D5F88800A26B20F096
:1011D00040601043C5F88800A06B884203D1E868DE
:1011E00040F48010E860208800040FD5D5F888000E
:1011F000E16B20F040500843C5F88800E06BB0F187
:10120000805F03D1E86840F48030E8603046BDE894
:10121000F883000000100240007000402DE9F04704
:101220000E4605004FF0000725D0DFF8AC81D8F856
:10123000000000F00F00B0420CD2D8F8001021F0EE
:101240000F013143C8F80010D8F8000000F00F007B
:10125000B04210D12968614CC80741F2883A5AD08F
:101260006868DFF87C91032808D0022820682DD018
:10127000400500282CDB0120BDE8F08720688001B4
:10128000F9D5E06800F00302E068C0F30310401CE9
:10129000032A19D0534A00BFB2FBF0F0E268C2F350
:1012A00006225043E268C2F34162521C5200B0FB76
:1012B000F2F0484517D9A06810F0F00F0CD088075D
:1012C00011D5A86840B10EE0474AE5E78003D0E7B2
:1012D00000F0B6F8484506D9A06820F0F00040F0CC
:1012E0008000A0608027A068696820F003000843A0
:1012F000A060FFF751FD814606E000BFFFF74CFDFF
:10130000A0EB090151453AD8A068696800F00C00CB
:10131000B0EB810FF2D12868810714D5400703D5BF
:10132000A06840F4E060A0602878000705D5A068B8
:1013300020F4605040F4E060A060A068A96820F04C
:10134000F000084304E0802F03D1A06820F0F000F3
:10135000A060D8F80010404601F00F01B14216D944
:10136000016821F00F0131430160FFF715FD0746C9
:1013700007E000BFFFF710FDC11B514501D9032055
:101380007AE7D8F8000000F00F00B042F2D12878D8
:10139000400705D5A068E96820F4E0600843A06034
:1013A0002878000706D5A068296920F4605040EA33
:1013B000C100A06000F044F8A1680C4AC1F3031119
:1013C000515C01F01F01C8400949086009480068E4
:1013D000BDE8F047FFF7FEBC0020024000100240CD
:1013E00000B4C4040024F40000127A00D0310008D4
:1013F0000C000020000000200548064900688968AC
:10140000054AC1F30221515C01F01F01C840704739
:101410000C00002000100240E03100080548064999
:1014200000688968054AC1F3C221515C01F01F01BF
:10143000C84070470C00002000100240E031000856
:10144000184910B58868C0F381021748012A0BD0EB
:101450008A684310C2F38102022A06D08A68C2F366
:101460008102032A03D0002010BD184610BDCA68AF
:1014700002F00304CA68C2F30312521C032C02D008
:10148000B0FBF2F001E0B3FBF2F0CA68C968C2F346
:1014900006225043C1F34161491C4900B0FBF1F001
:1014A00010BD0000001002400024F4002DE9F843B4
:1014B00004007AD02078F84DC00747D0A868E968C2
:1014C00000F00C0001F003010C2802D0082817D00E
:1014D00001E0032914D06068B0F5803F17D0B0F563
:1014E000A02F286817D020F480302860286820F4C6
:1014F000802028606068E0B1FFF74EFC064614E0EB
:101500002868800322D560680028D2D01EE02868B1
:1015100040F48030EDE740F480202860F7E700BF1A
:10152000FFF73AFC801B642870D828688003F7D541
:101530000CE0FFF731FC064605E000BFFFF72CFC8E
:10154000801B6428F0D828688003F7D420788007AF
:101550004CD5A868E96800F00C0001F003010C28E4
:1015600002D004280DD001E002290AD0E06800284A
:1015700028682BD040F480702860FFF70DFC0646E9
:1015800019E02868400502D5E068002891D0686815
:10159000217C20F0FE4040EA01606860BF4800689E
:1015A000FFF718FC002800D120E072E1FFF7F4FB00
:1015B000801B0228B8D828684005F7D56868217CC8
:1015C00020F0FE4040EA016068600FE020F4807087
:1015D0002860FFF7E1FB064605E000BFFFF7DCFBF4
:1015E000801B0228A0D828684005F7D4207800077F
:1015F00029D560690028D5F8940013D040F0010087
:10160000C5F89400FFF7C8FB064606E090E000BF6F
:10161000FFF7C2FB801B022886D8D5F8940080070C
:10162000F6D510E020F00100C5F89400FFF7B4FBF8
:10163000064604E0FFF7B0FB801B022878D8D5F8F7
:1016400094008007F6D42078400761D5A86D002665
:10165000C00008D4A86D40F08050A865A86D012690
:1016600000F0805000908E480168C90511D40168CF
:10167000804641F480710160FFF78EFB074604E06D
:10168000FFF78AFBC01B022852D8D8F80000C0051B
:10169000F6D5A068012815D00528D5F8900016D0F9
:1016A00020F00100C5F89000D5F8900020F004006B
:1016B000C5F89000A06841F28838B8B1FFF76CFB1C
:1016C00007460EE0D5F8900040F00100F0E740F04A
:1016D0000400C5F89000F5E7FFF75EFBC11B41452C
:1016E00026D8D5F890008007F6D50CE0FFF754FB1C
:1016F000074604E0FFF750FBC11B414518D8D5F859
:1017000090008007F6D41EB1A86D20F08050A86527
:101710002078800629D5A0690028D5F8980013D034
:1017200040F00100C5F89800FFF736FB064606E0DA
:1017300075E000BFFFF730FB801B02286FD8D5F89B
:1017400098008007F6D510E020F00100C5F8980059
:10175000FFF722FB064604E0FFF71EFB801B022872
:101760005DD8D5F898008007F6D4E069F0B3A96891
:10177000C1F3810103295DD00228286820F0807020
:10178000286003D0FFF708FB04464BE0FFF704FB9B
:10179000064604E0FFF700FB801B02283FD82868BC
:1017A0008001F7D4F4E908016FF00F0202EB011198
:1017B0000843218A5204490802EB4151A26841EAD8
:1017C00002210843217D4FF07E42490802EB41612E
:1017D0000843217B40EAC160E968324A114008436E
:1017E000E860286840F08070286000E05EE0E8680B
:1017F00040F08070E860FFF7CFFA044605E000BFD4
:10180000FFF7CAFA001B022809D828688001F7D51B
:101810004CE000BFFFF7C0FA001B022802D90320EA
:10182000BDE8F88328688001F4D4E8681E490840C0
:10183000E8603BE00128F3D0E868226A00F0030189
:10184000914226D1616A00F0F002090110399142FB
:101850001FD1A26A00F4FE41B1EB022F19D194F816
:101860002C2000F07841B1EBC26F12D1218E00F430
:10187000C00249084905A1F50011914209D194F827
:10188000341000F0C06049084906A1F1007181429E
:101890000CD00120C4E7000000100240000000202E
:1018A000007000400C809F01FCFFEEFE0020B7E7B7
:1018B00010B5401EB0F1807F01D3012010BD4FF064
:1018C000E02460610F21601700F0E8FF0020A061B4
:1018D00007202061002010BD90F88410012918D045
:1018E000012180F884102421C0F8881001680A685A
:1018F0000B6823F001030B6022F0005100224266C6
:10190000036819602021C0F8881080F884201046F0
:1019100070470220704710B50446D0F88C0020288C
:1019200001D0022010BD61B15AB10120E066002053
:101930002067204600F0FCFE0028F3D1E16E01296B
:1019400001D0012010BD226810211162226852E8E6
:10195000001F41F0100142E80013002BF6D110BD2A
:1019600010B50C4600680F49884219D1802C17D851
:1019700080220D490D48FFF7CEFF4FF6FF73224638
:1019800009490A4800F0C6FA09480068016821F0D0
:1019900004010160BDE8104080210348FEF772BCDD
:1019A00010BD000000380140E801002014000020B4
:1019B000A8000020704770B5044690F88400012804
:1019C0001DD0012084F884002420C4F888002068F9
:1019D0000568026822F0010202602068826822F035
:1019E00060620A438260204600F0B4FB2068056014
:1019F0002020C4F88800002084F8840070BD0220F4
:101A000070BD70B5044690F8840001281DD00120F7
:101A100084F884002420C4F88800206805680268DF
:101A200022F0010202602068826822F060420A43CC
:101A30008260204600F08EFB206805602020C4F8FC
:101A40008800002084F8840070BD022070BD7047BB
:101A50007047000010B500680A49884210D1802202
:101A600009490A48FFF757FF09480068016821F053
:101A700004010160BDE8104080210348FEF702BC6C
:101A800010BD000000380140E801002014000020D3
:101A9000A80000202DE9F04103680446D8691968C0
:101AA0009A6840F60F0528424FF000054FF00206F5
:101AB0000AD187067ED501F0200702F0805C57EA44
:101AC0000C0777D0616F42E1B64FDFF8DCC21740F8
:101AD00001EA0C0C57EA0C0C6CD05FEAC07C0CD00D
:101AE0005FEAC15C09D54FF0010CC3F820C0D4F8FF
:101AF000903043F00103C4F89030830709D5D30731
:101B000007D023681E62D4F8903043F00403C4F871
:101B1000903043070AD5D30708D0266804233362E0
:101B2000D4F8903043F00203C4F8903003070CD58A
:101B300001F020033B4308D0266808233362D4F821
:101B4000903043F00803C4F8903003050BD54B01E7
:101B500009D526684FF400633362D4F8903043F01F
:101B60002003C4F89030D4F89030002B3DD080068C
:101B700009D501F0200002F08051084303D0616FC5
:101B800009B120468847D4F8900021688968490641
:101B900002D410F0280F2AD0204600F04DFC206817
:101BA000806840061ED52068083050E8001F21F0EC
:101BB000400100E021E040E80012002AF3D1D4F80F
:101BC000800078B179498163D4F88000FEF788FEFF
:101BD00000280AD0D4F88000816B00E02046BDE8E0
:101BE000F04108472046FFF735FFBDE8F081204669
:101BF000FFF730FFC4F89050F7E7D4F86CC0202707
:101C0000BCF1010F7ED15FEAC06C7BD55FEAC16C8D
:101C100078D51020186220688068400651D5D4F825
:101C200080100A6850680004000C3ED0B4F85C30A4
:101C300083423AD9A4F85E000868006880062CD474
:101C4000216851E8000F20F4807041E80002002A6A
:101C5000F6D12068083050E8001F21F0010140E86B
:101C60000012002AF5D12068083050E8001F21F04A
:101C7000400140E80012002AF5D1C4F88C70E566F6
:101C8000216851E8000F20F0100041E80002002A0E
:101C9000F6D1D4F88000FEF7EBFD2667B4F85C00BF
:101CA000B4F85E10401A81B207E0B4F85C108142CB
:101CB0009BD11068800698D526672046FFF750FE16
:101CC00093E7B4F85C00B4F85E10401A81B2B4F83F
:101CD0005E00002889D0002987D0226852E8000FD2
:101CE00020F4907042E80003002BF6D12D4BDB432B
:101CF0002068083050E8002F1A4040E8002CBCF162
:101D0000000F00E00EE0F3D1C4F88C70E566656763
:101D1000206850E8002F22F0100240E80023002B3A
:101D2000F6D1C9E7C60209D5560207D54FF480108F
:101D300018622046BDE8F041FFF78ABE03060AD5C7
:101D400001F0800302F40002134304D0A16F0029C4
:101D50007FF444AF49E7420611D54A060FD5204625
:101D6000016851E8002F22F0400241E80023002BD7
:101D7000F6D1C0F88870856700F027F935E70202D0
:101D800006D54A0004D52046BDE8F041FFF75FBE06
:101D9000C00195D5002993DA2046BDE8F041FFF750
:101DA00009BE000001000010200100040D230008FE
:101DB00010B5040003D0D4F8880010B107E001206A
:101DC00010BD002084F88400204600F027F824206D
:101DD000C4F888002068016821F001010160A06A50
:101DE00010B1204600F0D8F9204600F067FB01282A
:101DF000E6D02068416821F4904141602068816804
:101E000021F02A0181602068016841F00101016030
:101E10002046BDE8104000F023BA0000F0B597B0AE
:101E20000646142111A8FEF72DFA44216846FEF754
:101E300029FA3249306888425DD10420002400909C
:101E400003946846FFF7A6F808B1FEF70FFD2C488B
:101E5000816D41F480218165816D01F480211691AD
:101E6000C16C41F00201C164C06C11A900F0020014
:101E700016904FF4406011900220CDE91204072023
:101E8000CDE914401F48FEF76DFE204D1E48802707
:101E900028601C20C5E90104C5E903476C61AC61F9
:101EA000EC6128462C62FEF7B5FD08B1FEF7DEFCBA
:101EB000C6F88050AE62154D134860351430286066
:101EC0001D20686005F10801102081E891006C6117
:101ED000AC61EC6128462C62FEF79CFD08B1FEF770
:101EE000C5FCF567002211462720AE62FEF7BAFF57
:101EF0002720FEF7A9FF17B0F0BD00000048004002
:101F0000001002400004004808000240A800002021
:101F1000704770472DE9F84F0446D0F8880098467E
:101F200015460E46202802D00220BDE8F88F96B351
:101F30008DB30020C4F890004FF02109C4F88890B8
:101F40001834FEF729FFA5878246E58754F8100C60
:101F5000183CB0F5805F01D1206910B135460026EC
:101F600000E000255FF02007B4F8560053464FF01C
:101F70000002CDF80080D8B18021204600F02CFC72
:101F8000D8B955B115F8010B21688862D4F88810CA
:101F900039EA010006D00120C7E736F8020BC0F38A
:101FA0000800F1E7B4F85600401EA4F85600DBE73D
:101FB0004021204600F010FC18B1C4F888700320BE
:101FC000B3E7C4F888700020AFE77047FEE7000071
:101FD000114808B5816C41F004018164816C01F005
:101FE00004010091816C41F001018164806C002248
:101FF00000F00100009011460B20FEF733FF0B208C
:10200000FEF722FF002211460C20FEF72BFFBDE851
:1020100008400C20FEF718BF00100240114808B518
:10202000C16C41F00401C164C16C01F00401009174
:10203000C16C41F02001C164C16C01F0200100912C
:10204000C16C41F00201C164C16C01F00201009158
:10205000C16C41F00101C164C06C00F0010000904E
:1020600008BD000000100240184810B51649016074
:102070004FF4E1314160002181600C22C160C0E970
:1020800004128161C161016241628162FFF790FEC9
:1020900008B1FEF7EBFB00210C48FFF7B2FC08B1DA
:1020A000FEF7E4FB00210948FFF785FC08B1FEF7C5
:1020B000DDFB0648FFF710FC002803D0BDE8104008
:1020C000FEF7D4BB10BD0000004800401400002003
:1020D000FEE7FEE770477047FEF764BE00B593B0B9
:1020E00038216846FEF7CEF814210EA8FEF7CAF88C
:1020F0000020FEF7E9FE0220C10103914021049176
:102100000121CDE9080100901521CDE90A100790C1
:102110000C900D906846FFF7C9F908B172B6FEE75A
:102120000F200E9003200F9000201090119012901D
:1021300004210EA8FFF772F8002801D072B6FEE75E
:1021400013B000BD0248016841F47001016070479E
:1021500088ED00E030B5416EB9B1026891689268CF
:10216000C1F342610B4B520F9C5CE50003F1080484
:10217000A25CB5FBF2F2A0F86A205A5C615CD20066
:10218000B2FBF1F1A0F8681030BD0121A0F86A108F
:10219000F8E70000C031000890F82810090706D5BC
:1021A00001684A68836B22F400421A434A6090F83F
:1021B0002810C90706D001684A68C36A22F40032B1
:1021C0001A434A6090F82810890706D501684A68C2
:1021D000036B22F480321A434A6090F828104907B2
:1021E00006D501684A68436B22F480221A434A608C
:1021F00090F82810C90606D501688A68C36B22F4D6
:1022000080521A438A6090F82810890606D5016822
:102210008A68036C22F400521A438A6090F82810EE
:10222000490611D501684A68436C22F480121A43AA
:102230004A60416CB1F5801F06D101684A68836C21
:1022400022F4C0021A434A6090F82810090606D505
:1022500001684A68C06C22F4002202434A60704759
:102260002DE9F84300260446C0F89060FEF794FD7F
:102270008046206800684FF0200500076FF07E4719
:1022800013D54346002229042046009700F0A4FA03
:1022900058B1216851E8000F20F0800041E80002A9
:1022A000002AF6D1C4F8885021E020680068400771
:1022B00022D5434600224FF480012046009700F0CB
:1022C0008BFAC8B1216851E8000F20F4907041E802
:1022D0000002002AF6D12068083050E8001F21F0E3
:1022E000010140E80012002AF5D1C4F88C5084F8AE
:1022F00084600320BDE8F883C4F88850C4F88C508B
:1023000044F86C6F666026760020F3E710B5806AAB
:10231000FFF7A0FB10BD70B5846AD4F88800D4F82C
:102320008C5021688968090604D5212802D12046ED
:1023300000F0ACF820688068400604D5222D02D158
:10234000204600F079F8D4F8900040F01000C4F86E
:1023500090002046FFF77EFB70BD70B50146806A95
:102360000A6812684FF0000392062DD4A0F85E3080
:10237000046854E8002F22F4807244E80025002D00
:10238000F6D10268083252E8004F24F0010442E816
:102390000045002DF5D10268083252E8004F24F0C4
:1023A000400442E80045002DF5D12022C0F88C20E1
:1023B000C26E012A08D1046854E8002F22F01002EE
:1023C00044E80025002DF6D10367C26E012A02D031
:1023D000FFF79EFD70BDA0F85E3009684968B0F84F
:1023E0005C2089B28A4201D9A0F85E10B0F85E1074
:1023F000511A89B2FFF7B4FA70BD10B50246806A6F
:1024000001210167C16E012902D0FFF782FD10BDD5
:10241000B0F85C104B08A0F85E301268526892B2B7
:10242000914201D3A0F85E20B0F85E20891A89B2EB
:10243000FFF796FA10BD000010B5026852E8001FC1
:1024400021F4907142E80013002BF6D10E4B026884
:10245000083252E8001F194042E80014002CF6D15F
:10246000C16E012908D1016851E8002F22F0100245
:1024700041E80023002BF6D12021C0F88C10002168
:10248000C166416710BD0000FEFFFFEF026852E821
:10249000001F21F0C00142E80013002BF6D10168B3
:1024A000083151E8002F22F4000241E80023002BFC
:1024B000F5D12021C0F88810704700002DE9F041C7
:1024C0000446016880682269E36910436269002557
:1024D0001A431043DFF82CC20A688B4B1A400243A0
:1024E0000A6020684168E26821F44051114341606C
:1024F0002168A069614501D0226A10438A68834B34
:102500001A4002438A602068C16A626A21F00F01A2
:102510001143C1627E4923687E488B420DD1D0F8B9
:10252000880010F0030006D0012855D0022842D0C0
:1025300003283FD152E001203DE077498B420BD187
:10254000D0F8880010F00C0035D0042833D00828CB
:1025500040D00C282ED141E070498B420BD1D0F8ED
:10256000880010F0300026D0102835D0202831D037
:1025700030281FD132E06A498B420BD1D0F8880055
:1025800010F0C00017D0402826D0802822D0C028C4
:1025900010D123E063450DD1D0F8880010F44060DD
:1025A00009D0B0F5806F17D0B0F5006F12D0B0F53C
:1025B000406F13D010205B495B4F00264FF4004260
:1025C00063453BD160B1022813D004280BD0082802
:1025D00072D10DE00220EEE70420ECE70820EAE7E4
:1025E000FEF70AFF01E0FEF72BFF010001D17CE0BE
:1025F0001146606A37F810206768B1FBF2F007EB0C
:102600004703834270D8B0EB073F6DD800230846DC
:102610001946FDF7FFFD090241EA10610202780840
:10262000101871413A460023FDF7F4FD3F4AA0F52A
:102630004071914258D82168C86056E0E3694FF66E
:10264000EF7893422CD109284ED2DFE800F005083C
:10265000114D0D4D4D4D1000FEF7CEFE01E0FEF781
:10266000DDFE010004D140E0FEF7EAFEF9E7114685
:10267000606A37F81000B1FBF0F04100606801EBD0
:102680005001B1FBF0F0A0F1100141452CD84FF6FC
:10269000F0710140C0F3420001432068C16024E0B2
:1026A000092821D2DFE800F0050912200E202020A1
:1026B0001100FEF7A1FE02E016E0FEF7AFFE0100FA
:1026C00004D112E0FEF7BCFEF9E71146606A37F864
:1026D0001000B1FBF0F1606801EB5001B1FBF0F0CC
:1026E000A0F1100141450AD901250120A4F86A0092
:1026F00024F8680F2846E6602661BDE8F08180B2C4
:1027000099E7000000800040F369FFCFFFF4FF115C
:1027100000380140001002400044004000480040E2
:10272000004C00400024F400A8310008FFFC0F001A
:1027300070B58165A0F85C2000210446C0F89010B7
:102740002220C4F88C00D4F88000F0B11F4BC36283
:10275000D4F880301E481863D4F880301D48586380
:10276000D4F8800013468163A56D21682A46243180
:10277000D4F88000FEF7B0F938B11020C4F890000A
:102780002020C4F88C00012070BD206940B1216870
:1027900051E8000F40F4807041E80002002AF6D1B1
:1027A0002068083050E8001F41F0010140E80012A5
:1027B000002AF5D12068083050E8001F41F04001A0
:1027C00040E80012002AF5D1002070BD5B2300080C
:1027D000FB230008172300082DE9F0479946174608
:1027E0000D4604464FF00008089E33E0701C31D0BF
:1027F000FEF7D2FAA0EB0900B04218D8BEB12068AB
:102800000168490726D5802D24D0402D22D0C169EA
:10281000C94309070DD4082505622046FFF70CFEC1
:10282000C4F8905084F884800120BDE8F08703202C
:10283000FBE7C069C04300050CD421684FF4006079
:1028400008622046FFF7F8FD2020C4F8900084F8C5
:102850008480ECE72068C06935EA000004D00020DD
:10286000B842C3D00020E0E70120F9E70148FFF7B4
:1028700011B9000014000020FEE700000FB4054B62
:1028800010B503A9044A029800F0EAF810BC5DF8FC
:1028900014FB000069310008100000200907090E30
:1028A000002804DB00F1E02080F80014704700F0FD
:1028B0000F0000F1E02080F8141D704702E008C806
:1028C000121F08C1002AFAD170477047002001E0AA
:1028D00001C1121F002AFBD1704700002DE9FF5FE4
:1028E00082B00021DDE90430020DDDF840B0034381
:1028F00018D044F61050A2F2FF324243151411983A
:1029000001281FD0A5EB0B00401C5FEA000A4FF026
:1029100000064E4FDFF83891B046504615D5CAF143
:10292000000413E0119801244AA3012801D16FEAA1
:102930000B010298119AC0E90031C0E9024206B0C9
:10294000BDE8F09FCBF10000DFE704460021404ADC
:10295000491842EB0450CDE9001012E0E00707D01F
:1029600032463B4640464946FDF773FD8046894660
:1029700032463B4610461946FDF76BFD06460F46AC
:102980006410002CEAD1DDE90401DDE90023BAF18D
:10299000000F06DAFDF75DFD42464B46FDF759FD97
:1029A00005E0FDF7C8FD42464B46FDF7C4FD044671
:1029B0000E460022284BFDF745FE03D84FF0FF30AE
:1029C000014607E00022254B20463146FDF79AFCE0
:1029D000FDF720FE102409E0002C0ADB0A22002368
:1029E000FDF718FC039B30321A55641E50EA0102B1
:1029F000F2D1641C039AC4F111031444119A012A00
:102A000003D0012208430DD10AE0084304D000207E
:102A10004FF0110B119072E7A3EB0B056D1E0DE04B
:102A20005B4504DD4FF0000205F1010504E003DA27
:102A30004FF00002A5F10105002AECD0029811998F
:102A4000C0E90231C0E9004579E700000000144008
:102A50000000F03F300000000000F0430000E03FC5
:102A60002DE9FF4F95B09A46884606460025EEE1CF
:102A7000252877D100242746F94A0121039400E054
:102A8000044316F8013F203B01FA03F01042F7D14E
:102A900030782A2811D06FF02F033078A0F130025F
:102AA000092A16D8039A44F0020402EB820203EBCF
:102AB00042021044761C0390EFE758F8042B03926F
:102AC000002A03DA504244F40054039044F0020414
:102AD000761C30782E2816D116F8010F44F0040425
:102AE0002A280DD06FF02F023078A0F13003092B87
:102AF00009D807EB870302EB4303C718761CF3E7FB
:102B000058F8047B761C30786C280FD006DC4C28F3
:102B100017D068280DD06A2814D104E0742810D08A
:102B20007A280FD10DE044F400140AE044F4801434
:102B300001E044F440147278824202D104F580141A
:102B4000761C761C307866280BD013DC582877D09A
:102B500009DC002875D04528F6D04628F4D047284F
:102B60001AD193E118E0632835D0642879D065281C
:102B700012D18BE1702873D008DC6728F1D0692866
:102B80006FD06E280DD06F2806D1ACE073282CD002
:102B9000752874D0782853D05246179990476D1CE9
:102BA00054E1C4F30250022809D003280DD0D8F80C
:102BB000001004280DD00D6008F1040846E1D8F893
:102BC0000010EA17C1E90052F6E7D8F800100D80AE
:102BD000F2E70D70F0E718F8041B8DF800100020E4
:102BE0008DF80100EB46012003E058F804BB4FF0DC
:102BF000FF3061074FF0000102D40DE009F101013F
:102C00008946B9420FDA8145F8DB1BF80910002923
:102C1000F4D108E009F1010189468142FADB1BF891
:102C200009100029F6D103985346A0EB0907214665
:102C30003846179A00F080FA284400EB090507E0AF
:102C400044E008E10DE01BF8010B5246179990474C
:102C5000B9F10109F7D2534621463846179AF2E0F6
:102C600039E00A21C4F302524FF0000B0091022A0E
:102C700006D058F8040BC117032A09D00AE023E054
:102C800008F1070020F00702F2E80201904605E093
:102C900000B2C117042A01D140B2C117002906DAD7
:102CA0000A460021404261EB02012D2202E022058A
:102CB00004D52B228DF80420012203E0E20701D085
:102CC0002022F7E7914657E00A2100E010214FF05B
:102CD000000B00910BE010214FF0000B44F00404B6
:102CE0000827009103E008204FF0000B0090C4F388
:102CF0000252022A05D058F8040B0021032A08D0FA
:102D000008E008F1070020F00702F2E8020190460F
:102D100003E080B2042A00D1C0B24FF000092207BC
:102D20002AD53278702A07D0DDF800C08CF0100C5C
:102D30005CEA0B0C05D00EE040228DF80420012245
:102D400008E050EA010306D030238DF804308DF8F6
:102D5000052002229146009B83F0080353EA0B03EF
:102D60000AD150EA010201D1620705D530228DF85F
:102D700004204FF001097F1E3278582A04D039A26E
:102D80000C920CAA02920BE03BA2F9E75B46009A78
:102D9000FDF740FA0C9B9B5C029A521E0292137044
:102DA00050EA0102F2D1029804A9081A00F1200B9E
:102DB000600702D524F4803400E001275F4502DD7E
:102DC000A7EB0B0000E0002000EB0B010090039844
:102DD0004944401A0390E00306D453462146179A0B
:102DE000039800F0A9F90544002706E001A852461F
:102DF000C05D179990476D1C7F1C4F45F6DBE003C3
:102E00000CD553462146179A039800F095F90544CE
:102E100004E030205246179990476D1C0099481ED7
:102E200000900029F5DC08E00298029952460078EB
:102E3000491C0291179990476D1CBBF10001ABF141
:102E4000010BF1DC5BE100F065F90544761C30789C
:102E500000287FF40DAE19B02846BDE8F08F0000C1
:102E60000928010030313233343536373839616260
:102E70006364656600000000303132333435363724
:102E8000383941424344454600000000600700D401
:102E9000062708F1070020F00700F0E8022380462B
:102EA00003F0004C5FEA0C0001D097A009E0200578
:102EB00001D596A005E0E00701D095A001E0AFF2B2
:102EC0004C001390307823F0004365280CD006DCCA
:102ED000452809D046281DD047287FD13BE06628E9
:102EE00018D067287AD136E00021112F01DB11209C
:102EF00000E0781CCDE9000104A90CA8FFF7EEFC66
:102F0000DDE90D010C9A4FF0000B07F10109109259
:102F100000914EE04FF000400097CDE9011004A968
:102F20000CA8FFF7DBFCDDE90D020C9B0F994FF0BD
:102F3000000B91461093009211B9791C00EB010926
:102F4000B7EB090003D4C0F1FF3B07F10109A9EB7E
:102F50000700019042E0012F00DA01270021112F24
:102F600001DD112000E03846CDE9000104A90CA8DC
:102F7000FFF7B4FCDDE90D010C9A00914FF0000B56
:102F8000B946109221070FD4009A4A4503DA9146B8
:102F900001E0A9F10109B9F1010F05DD109AA9F1CC
:102FA0000101515C3029F4D0B84202DA10F1040F6B
:102FB00003DA0121CDE9011010E0002803DC83448D
:102FC000A9EB000102E0411C494500DD8946A0EB68
:102FD0000B00401C01904FF000400290200705D4E8
:102FE0000198484502DB4FF0FF30019000208DF83A
:102FF0004B0002980DF14B07B0F1004F25D0022095
:103000000C902B200D90029800280CDA4042029080
:103010002D200D9007E00A210298FDF73EF930318E
:10302000029007F8011D0C99481E0C900029F2DC53
:1030300002980028EFD1791E0D980870307800F0C2
:10304000200040F0450007F8020D11A8C01BC01D6C
:1030500002901398007800B1012000EB090101985B
:1030600001EBE071029801440398401A401E03905E
:10307000E00306D453462146179A039800F05CF803
:1030800005441398007818B15246179990476D1C63
:10309000E00323D553462146179A039800F04CF8D5
:1030A00005441BE0BBF1000F07DB0098584504DD29
:1030B0001098179910F80B0001E01799302052462C
:1030C000904701980BF1010B401E05F1010501909D
:1030D00004D12E205246179990476D1CB9F100017A
:1030E000A9F10109DEDC05E017F8010B524617993A
:1030F00090476D1C0299481E02900029F4DC53464B
:103100002146179A03989EE62D0000002B00000030
:10311000200000002DE9F041044600251E46174618
:10312000880404D405E039462020B0476D1C641E95
:10313000F9D52846BDE8F0812DE9F0410446002587
:103140001E469046C80301D5302700E0202788049A
:1031500004D505E041463846B0476D1C641EF9D5DC
:103160002846BDE8F081000013B54FF6FF73012239
:1031700069460248FEF7CEFE00981CBD14000020F0
:10318000FDF718FEFEF7AAFFFEF748FFFEF720FF47
:10319000FEF76AFFFDF7F0FA01A0FFF76FFBFEE70D
:1031A00031323334350A0000010002000400060009
:1031B00008000A000C001000200040008000000100
:1031C00001010103070100000804020408010101D4
:1031D00000000000000000000102030406070809C7
:1031E0000000000001020304083200080000002073
:1031F00014000000BC2800081C3200081400002045
:103200005C0A0000CC28000810000000010000004B
:0C321000000000000024F400000000009A
:04000005080001D915
:00000001FF
