:020000040800F2
:10000000080C0020F1010008FB3B0008F137000854
:10001000F93B00088D060008954B00080000000021
:10002000000000000000000000000000E53D0008A6
:100030004D09000800000000FD3B0008E73D0008F6
:100040000B0200080B0200080B0200080B0200085C
:100050000B0200080B0200080B0200080B0200084C
:100060000B0200080B0200080B02000891060008B2
:100070009D0600080B0200080B0200080B02000896
:100080000B02000800000000E90400080B02000851
:100090000B0200080B0200080B0200080B0200080C
:1000A000653E0008893E00087D3E0008713E00085C
:1000B0000B0200080B0200080B0200080B020008EC
:1000C0000B0200080B0200080B0200080B020008DC
:1000D0000B0200080B0200080B020008894B000805
:1000E0000B0200080B0200080B0200080B020008BC
:1000F0000B0200080B0200080B02000800000000C1
:10010000000000000B020008000000000B020008C5
:100110000B02000800000000953E00080B020008DA
:100120000B0200080B0200080B0200080B0200087B
:100130000B02000800000000000000000B02000895
:100140000B0200080B020008000000000000000085
:10015000000000000000000000000000000000009F
:100160000000000000000000000000000B0200087A
:100170000B0200080000000000000000000000006A
:10018000000000000B02000800000000000000005A
:10019000000000000000000000000000000000005F
:1001A00000000000000000000B0200080B02000825
:1001B0000B0200080B0200080B0200080000000000
:1001C000000000000B02000800000000000000001A
:1001D0000B0200080B020008DFF810D000F0A6F8B0
:1001E00000480047DD4C0008AFF30080080C0020F9
:1001F0000648804706480047FEE7FEE7FEE7FEE7C1
:10020000FEE7FEE7FEE7FEE7FEE7FEE7553E0008F5
:10021000D90100082DE9F05F0546002092469B4673
:1002200088460646814640241BE02846414647460C
:10023000224600F041F853465A46C01A914110D365
:1002400011461846224600F028F82D1A67EB0108DF
:100250004F4622460120002100F01FF817EB00094D
:100260004E41201EA4F10104DFDC484631462A46F7
:100270004346BDE8F09FD2B201E000F8012B491ED1
:10028000FBD270470022F6E710B513460A46044633
:100290001946FFF7F0FF204610BD202A04DB203A64
:1002A00000FA02F1002070479140C2F1200320FAC9
:1002B00003F3194390407047202A04DB203A21FAC7
:1002C00002F00021704721FA02F3D040C2F120026F
:1002D0009140084319467047F0B400F0004221F005
:1002E000004120F00040CE0DC30DC1F3160141F4D2
:1002F0000001C0F316004C42154640F40000761E83
:1003000009E010EB440002D582F0004240428842EE
:10031000F7D840005B1EB342F9DA18B1F0BC0021F7
:1003200000F01FB82846F0BC70470000064C074D8F
:1003300006E0E06840F0010394E8070098471034B5
:10034000AC42F6D3FFF74CFF50550008705500083B
:100350000029A8BF7047401C490008BF20F00100D9
:10036000704710B4B0FA80FC00FA0CF050EA0104B7
:1003700004BF10BC704749B1CCF1200421FA04F449
:1003800011FA0CF118BF012121430843A3EB0C0122
:10039000CB1D4FEA00614FEA102042BF002010BC85
:1003A000704700EBC35010440029A4BF10BC704735
:1003B000401C490008BF20F0010010BC704700003D
:1003C0009FED221A9FED222A20EE010AB5EE001AB7
:1003D00030EE010ABDEEC01A11EE100AB5EE400A69
:1003E000F1EE10FAB8BF013801EE100AB8EEC11AEA
:1003F00030EE410A20EE020ABDEEC01A9FED152A2A
:1004000011EE100A002130EE021AB1EB502F44F623
:100410004C511CBF0020B0EE410AC0F6000101EEB5
:10042000100A01EB8001B8EE411A30EE410A91ED5D
:10043000001A91ED012AB7EE003A33EE403A23EE6E
:10044000011A20EE020A31EE000A704783F9223EBB
:1004500000000044000000C49FED201A9FED202AF8
:1004600020EE010ABDEEC01A11EE100AB5EE400AE8
:10047000F1EE10FAB8BF013801EE100AB8EEC11A59
:1004800030EE410A20EE020ABDEEC01A9FED152A99
:1004900011EE100A002130EE021AB1EB502F44F693
:1004A0004C511CBF0020B0EE410AC0F6000101EE25
:1004B000100A01EB8001B8EE411A30EE410A91EDCD
:1004C000001A91ED012AB7EE003A33EE403A23EEDE
:1004D000011A20EE020A31EE000A704783F9223E2B
:1004E00000000044000000C4014800F0B7BC000058
:1004F0002C00002091ED000A9FED0D1A80ED000AFE
:10050000D1ED000A91ED010ADFED0A1A50EE010A61
:10051000B6EE000A60EE800AC0ED010AD1EC020AD4
:1005200051EE210A20EE800A80ED020A7047000099
:10053000D0B3DD3FD0B3DDBF70B5DFED180A0C4698
:100540002DED028B054691ED020A20EE200ADFED2B
:10055000140AC0EE208AB0EE680AFFF77DFFF0EEC5
:10056000400AB0EE680AB0EE608AFFF729FFD4EDCA
:10057000010A94ED001A60EE800A48EE410AC5EDCA
:10058000000AD4ED010A94ED001A60EE880A40EEEC
:10059000010AC5ED010ABDEC028B70BDD80F4940C0
:1005A00000003443012801D0012200E00022102184
:1005B000014801F06FB9000000080048012801D08F
:1005C000012200E000224021014801F063B900004F
:1005D0000008004808B558B151B14AB164230093EE
:1005E00013460A460146034801F08EFF002800D05A
:1005F000012008BD9800002010B5184802F04CFA00
:10060000174802F049FA0021154802F0E3FC0021E6
:10061000134802F069F90421114802F0DBFC0421BF
:100620000F4802F061F908210D4802F0D3FC0821BF
:100630000B4802F059F90C21094802F0CBFC0C21BF
:10064000074802F051F90648002102685163026828
:1006500091630268D1630068016410BD4801002005
:10066000FC00002010B580220549064802F064FD18
:1006700005480068016821F00401016010BD000018
:10068000680300209401002028020020FEE70000FB
:10069000014800F0CDBE000028020020014800F013
:1006A000C7BE00008802002010B501680E4CCAB217
:1006B0001423083AA14203D2B2FBF3F20B4904E03F
:1006C000B2FBF3F209492031921D436C02F01F0284
:1006D00023F003031944816404498031C16401217A
:1006E0009140016510BD000008040240000802406E
:1006F0000179084A01F07F0102EB81024265054A57
:100700004432491E826501F01F0201219140C165FA
:1007100070470000FC08024030B5D0E91345656021
:10072000446D14B1D0E91645656090F8444004F07A
:100730001F050124AC40056C6C600468636083682D
:10074000102B036803D099600068C26030BD9A60C6
:100750000068C16030BD000000EE100ADFED050A40
:10076000B8EE400A20EE200ADFED030A20EE200A50
:10077000704700000000B443000080387CB50024BE
:10078000009483208DF800004FF0904501948DF87F
:10079000014022461021284601F07CF8022201A9DE
:1007A0006846FFF717FFB0B901221021284601F073
:1007B00071F884208DF800009DF805608DF80140E7
:1007C00000221021284601F065F8022201A968469E
:1007D000FFF700FF30B101221021284601F05AF83E
:1007E00000207CBD01221021284601F053F89DF81D
:1007F0000500B10141EA90007CBD000010B590ED0C
:10080000000AD0ED010A044620EE000A0C4900EE71
:10081000A00A10EE100A884211DD04F024FAB2EEAC
:10082000081AC1EE000A94ED010A20EE200A84EDB8
:10083000010A94ED000A20EE200A84ED000A10BDA2
:100840000000104310B504462DED028BFFF796FF14
:10085000FFF782FFDFED0D0A9FED0D8A30EE600A93
:10086000F1EE000A20EE200AF0EE480A04F0A3F9A7
:10087000B5EEC00A84ED020AF1EE10FA03D230EEB2
:10088000080A84ED020ABDEC028B10BDF6A897425F
:100890000000B443D0ED000AB3EE080AD0ED011A0F
:1008A00080EE801AF6EE000A4FF08143254A31EEC1
:1008B000202A81EE801AD0ED021AC1EE802A9FED27
:1008C000200A31EE201A21EE001A72EEA01A62EE12
:1008D000000A21EE800A10EE900ADFED1B1A81ED6E
:1008E000020A9842C1EC020A02DAF1EE000A05E0BF
:1008F00010EE900A904201DDF0EE610A11EE100A4E
:10090000C1ED000A984202DAB1EE001A05E011EEDC
:10091000100A904201DDB0EE611A10EE100A81ED6E
:10092000011A984202DAB1EE000A05E010EE100A50
:10093000904201DDB0EE610A81ED020A70470000CD
:10094000000048430000444300004443704772B62F
:10095000FEE7704770477047704770472DE9F047D2
:10096000044690F858009CB00E464FF0000901284C
:1009700015D0012084F85800002517951895206897
:100980004FF0A04840450ED1284F0097384602F05E
:100990003EFF8246206802F03AFF60B10EE002207E
:1009A0001CB0BDE8F087E06D40F02000E06584F801
:1009B00058500120F4E7BAF1000F09D0E06D40F083
:1009C0002000E0654FF0010984F858504846E7E7F9
:1009D0001748326840F61F71002A826822F460428C
:1009E00016D094F8383042EA433273681A43826072
:1009F000D8F80820BB6802F0010203F001031A4393
:100A0000E2D1B36832681A4383688B431A430BE020
:100A10008260D8F80820BB6802F0010203F00103ED
:100A20001A43D1D182688A438260CDE70001005029
:100A3000000300502DE9F84F00270446009790F876
:100A40005800DFF8E0930D46B846012811D0012682
:100A500084F85860206802F0D6FE60B1E06D40F086
:100A60002000E0655FF0010784F858803846BDE853
:100A7000F88F0220FBE7D5E900210C23206803EA68
:100A800091131844036B01F01F014FF01F0C0CFA77
:100A900001FCC2F3846223EA0C038A40134303631C
:100AA000206802F0B0FE8246206802F0A8FE5AEAF2
:100AB00000003CD1AA6829682068B2F1004F37D005
:100AC00002F0B1FE2068416921F0004141612068D7
:100AD0006969C268C2F3C102520091402A69042ABE
:100AE00031D000EB82002B68026EDFF83CC303F0CC
:100AF000F84302EA0C020B431A4342F0004101663C
:100B000020682A69A96900EB8200026E22F08072D7
:100B10000A430266297F22682869012910D0002132
:100B200002EB8000026E22F000720A4302667DE052
:100B3000002202F078FE2068416941F00041C5E7DB
:100B40004FF00071ECE7002102F053FE40032068F3
:100B50004FF0000172D002F04CFE90FAA0F0B0FA13
:100B600080F1286842036ED090FAA0F0B0FA80F0CD
:100B7000814204D100221146206802F063FE012167
:100B8000206802F036FE400320684FF001015DD07E
:100B900002F02FFE90FAA0F0B0FA80F1286842032C
:100BA00059D090FAA0F0B0FA80F0814204D100222E
:100BB0000121206802F046FE0221206802F019FEA1
:100BC000400320684FF0020148D002F012FE90FA74
:100BD000A0F0B0FA80F12868420344D090FAA0F067
:100BE000B0FA80F0814204D100220221206802F094
:100BF00029FE0321206802F0FCFD400320684FF02D
:100C0000030133D002F0F5FD90FAA0F0B0FA80F1C4
:100C1000286842032FD090FAA0F0B0FA80F0814209
:100C200004D100220321206802F00CFE20688168B4
:100C300011F0010F22D0ACE000E004E002F0D9FD99
:100C4000C0F384618DE7C0F3846091E702F0D1FDC9
:100C5000C0F38461A2E7C0F38460A6E702F0C9FD97
:100C6000C0F38461B7E7C0F38460BBE702F0C1FD65
:100C7000C0F38461CCE7C0F38460D0E72A7B2968A5
:100C800050F8B03FC1F3120C23EA0C0302F0180C29
:100C9000664A22FA0CF20A4013430360E9684945A8
:100CA00077D1286841031CD090FAA0F1B1FA81F104
:100CB000491C01F01F0109294FEA403132D80029AF
:100CC00012D000BF90FAA0F1B1FA81F101F1010157
:100CD00001F01F0106FA01F609D100BFC0F38461DB
:100CE00009E0C0F38461E3E7C0F38461EEE790FAC2
:100CF000A0F1B1FA81F101F1010101F01F0146EA11
:100D0000816102D1C0F3846003E090FAA0F0B0FAF0
:100D100080F000F1010000F01F0000EB400041EA0C
:100D2000005132E000290ED090FAA0F1B1FA81F121
:100D300001F1010101F01F0106FA01F606D100BF21
:100D4000C0F3846106E0C0F38461F1E790FAA0F19A
:100D5000B1FA81F101F1010101F01F0146EA81615F
:100D600002D1C0F3846003E090FAA0F0B0FA80F002
:100D700000F1010000F01F002D4A00EB400002EBE3
:100D8000005041EA000141F00071AA68206802F0B9
:100D90004AFD28482A6802423FF466AE2648816828
:100DA000264B01F0E0719A4202D0254B9A421CD1A9
:100DB0000B021AD42268B2F1A04F7FF455AE8268BC
:100DC00041F4000122F0E0720A4382601D481E498E
:100DD0000068B0FBF1F0401C00EB4000800000E038
:100DE000401E00900028FBD13EE6184D184BAA4249
:100DF00007D1CD0105D422689A42F5D041F0807127
:100E000009E0144DAA42EFD14A02EDD422689A4279
:100E1000EAD041F48001826822F0E0720A438260E5
:100E200022E6000000007F4000F0FF03FFFF070004
:100E3000000020FE0000088000030050000021C3D5
:100E40001000C0900C000020400D0300000052C7AD
:100E500000010050000084CB704770472DE9F05F1F
:100E60000446006806684568DFF854B2DBF80800FD
:100E700000F01F07B0070ED5A8070CD5E06DC0061F
:100E800003D4E06D40F40060E0652046FFF761FDAB
:100E9000216802200860DFF82CA270074FF0A048FC
:100EA00001D5680703D4300737D5280735D5E06D5D
:100EB000C00603D4E06D40F40070E065206802F0E5
:100EC000AAFC20B32068504501D1424600E002460A
:100ED000824208D03FB1052F05D0092F03D05045DD
:100EE00003D1414602E0C16801E00146C9688904B6
:100EF0000DD4016809070AD502F085FC58B3E06DEE
:100F000040F01000E065206E40F0010020662046B1
:100F1000FFF7A2FF21680C200860B00601D5A806E3
:100F200003D4700658D5680656D5E06DC00603D4C4
:100F3000E06D40F40050E0652068C16C11F4C07FA2
:100F40001AD00021894602F066FC0246206850450E
:100F500014D1434613E02068416821F00C01416040
:100F6000E06D20F48070E065E06DC004CFD4E06DEA
:100F700040F00100E065CAE70121E3E70346834250
:100F800008D03FB1062F05D0072F03D0504503D11D
:100F9000414602E0C16801E00146C968B9F1000FAD
:100FA00014D08B0102D58AB18A040FD4026852068C
:100FB0000CD589020AD402F022FCE8B3E06D40F0BF
:100FC0001000E065206E40F0010020662046FFF72B
:100FD000C1FC21686020086030060BD5280609D5C1
:100FE000E06D40F48030E065204600F067F921684C
:100FF00080200860F0050CD5E8050AD5E06D40F4C6
:101000000030E0652046FFF7A7FC21684FF48070B0
:101010000860B0050CD5A8050AD5E06D40F4802025
:10102000E0652046FFF799FC21684FF400700860E6
:10103000F0062ED5E80600E008E02AD5E06BD0B136
:10104000AFB1DBF8080000F4604013E020684168AD
:1010500021F060014160E06D20F48050E065E06DBA
:10106000C005B3D4E06D40F00100E065AEE7206854
:10107000C068C00750B1E06D40F48060E065206E4C
:1010800040F0020020662046FFF7E7FE21681020AE
:101090000860700512D5680510D5E06D40F48040F9
:1010A000E065206E40F00800206621684FF4806003
:1010B00008602046BDE8F05FFFF74DBCBDE8F09F3B
:1010C0000003005000010050F8B54FF00005040087
:1010D0002E46009502D0E06D10B107E00120F8BD6A
:1010E000204600F0EDF8266684F858602068816894
:1010F000C1F3407119B18168684A1140816020686C
:101100008168C1F3007189B98168654A114041F075
:1011100080518160634864490068B0FBF1F0400091
:10112000801C00E0401E00900028FBD120688168F0
:10113000C1F3007141B9E16D41F01001E165216E2B
:1011400041F001012166012502F05DFBE16DC90658
:1011500000D430B1E06D40F01000E0650125284674
:10116000F8BDE06D20F4807040F00200E06520687A
:10117000806810F0010F11D14FF0A04080684B49FA
:1011800000F00100896801F00101084306D14848D8
:101190006168826822F47C120A438260E168E06B35
:1011A000627F0843A16841EA4231084394F8241061
:1011B00040EA0140012904D1218D3E4A02EB414120
:1011C0000843E16A29B101F47871226B014342EAD4
:1011D00001002268D168384B19400143D160206872
:1011E0000169626B21F0406111430161206802F0E6
:1011F00006FB70BB207F94F83810800340EA410260
:101200002168C86844F2020398431043C86020690B
:101210000028206801690AD041F48031016120680A
:1012200050F8C01F22696FF30D01114307E021F44C
:1012300080310161206850F8C01F6FF30D0101601B
:1012400094F8400001280CD02068016921F00101C8
:101250000161606901282068016B21F00F0111D044
:1012600013E0D4E911010843D4E9131211430843F0
:1012700021680A6940F2FC739A43104340F0010070
:101280000861E6E7226A521E11430163E06D20F017
:10129000020040F00100E06561E70000C0FFFF5F71
:1012A000C0FFFF7F0C000020400D03000001005034
:1012B000000300500000FEFF0740F0FF70470000F1
:1012C00010B598B00446142111A8FEF7DBFF4421A5
:1012D0006846FEF7D7FF2068B0F1A04F2ED14FF43B
:1012E0000040009080030F90684600F0D7FB08B1E3
:1012F000FFF72DFB1248C16C41F40051C164C16C71
:1013000001F400511691C16C41F00201C164C06C3E
:1013100011A900F0020016904FF4805011900320A4
:10132000129000201390074800F09AF9002211460D
:10133000122000F01BFB122000F00AFB18B010BDB9
:10134000001002400004004810B5002140B190F8A0
:1013500025300122022B05D00421C163012124E0A4
:10136000012010BD03681C6824F001041C600368A0
:101370001C6824F00E041C60836C1C6824F48074C8
:101380001C6090F84430046C03F01F0302FA03F36E
:101390006360D0E913345C60436D33B11C6824F49E
:1013A00080741C60D0E916345C6080F8252000222F
:1013B00080F82420084610BD70B590F82520002440
:1013C00001212346022A07D00422C26380F8251097
:1013D00080F82430012429E00268156825F0010511
:1013E00015600268156825F00E051560826C156899
:1013F00025F48075156090F84420056C02F01F02FA
:1014000001FA02F26A60D0E913255560426D32B1EB
:10141000156825F480751560D0E91625556080F8AB
:10142000251080F82430816B01B18847204670BDBB
:10143000F0B4016C0C6801680D6890F8442002F06B
:101440001F06042202FA06F3234211D06B070FD5C0
:101450000B689B0603D40B6823F004030B6090F821
:10146000441001F01F018A40016C4A60016B1DE0CD
:10147000022303FA06F727424FF0000C4FF0010257
:1014800018D0AF0716D50C68A40605D40C6824F054
:101490000A040C6080F8252090F8441001F01F0128
:1014A0008B40016C4B6080F824C0C16A00291AD0BF
:1014B000F0BC08470823B340234214D02B0712D5B1
:1014C0000B6823F00E030B6090F84410036C01F0DE
:1014D0001F0102FA01F15960C26380F8252080F8EB
:1014E00024C0416BE2E7F0BC7047000070B5040017
:1014F0000CD02C4A21681420914209D22A4A0A446D
:10150000B2FBF0F08000606428480AE0012070BD62
:10151000244A52420A44B2FBF0F080006064214841
:1015200008382064022084F825000A6847F6F07025
:101530008243D4E902031843D4E904352B4318430A
:10154000A3691843E3691843236A184310430860EA
:101550002046FFF7A9F8A0680025B0F5804F00D11C
:1015600065602079A16C00F07F000860D4E9130168
:1015700041606068401E032808D82046FFF7B8F88D
:10158000606D0560D4E91601416002E06565A565FE
:10159000E565E563012084F8250084F824500020E7
:1015A00070BD000008040240F8FFFDBF00000240CB
:1015B00070B5044690F82400002501280CD00120C5
:1015C00084F8240094F825600020012E06D084F8C9
:1015D00024000225284670BD022070BD022684F832
:1015E0002560E0632068066826F001060660204654
:1015F000FFF792F8206B00282068016802D041F0C4
:101600000E0106E021F0040101602068016841F04C
:101610000A010160A06C0168C90303D5016841F4A7
:1016200080710160606D18B1016841F480710160E2
:101630002068016841F001010160CBE770B5044604
:1016400000F02EF90546601C02D0044840680444AE
:1016500000F026F9401BA042FAD370BD0000002024
:101660002DE9F04FDFF80C92002301260325A9F1A4
:10167000040B85B00F2709F1040AABF1040EF1E069
:1016800006FA03FC12EA0C027ED00C7904F0030483
:10169000012C01D0022C20D1846800945C0005FA52
:1016A00004F80494009C24EA08040094D1F80C8007
:1016B000049C08FA04F8009C48EA0408C0F8088072
:1016C000446824EA0C0491F804C0CCF3001C0CFA22
:1016D00003FC4CEA040CC0F804C00C79E443A407F2
:1016E00002D18C68012C0ED0C4684FEA430805FA79
:1016F00008FC24EA0C04D1F808C00CFA08FC4CEAF7
:10170000040CC0F80CC00C7904F00304022C16D1B0
:10171000DC0800EB840CCDF808C0DCF820C05C07C6
:101720004FEAD46807FA08F42CEA040C0C6904FAAE
:1017300008F444EA0C04DDF808C0CCF82040046842
:101740004FEA430805FA08FC24EA0C0491F804C0A7
:101750000CF0030C0CFA08FC4CEA040CC0F800C0B6
:101760004C6814F4403F7CD0434CD4F860C04CF03B
:10177000010CC4F860C0246E23F0030C04F00104D3
:1017800000943E4C644400E06BE00294A4684FEA8D
:10179000837C4FEA1C7807FA08FC24EA0C04B0F1B9
:1017A000904F06D0DFF8D8C0604505D14FF0010C4E
:1017B00020E04FF0000C1DE0DFF8C8C0604502D10A
:1017C0004FF0020C16E0DFF8C0C0604502D14FF0C8
:1017D000030C0FE0DFF8B4C0604502D14FF0040CF9
:1017E00008E0DFF8ACC0604502D14FF0050C01E025
:1017F0004FF0060C0CFA08FC4CEA040C029CC4F8EE
:1018000008C0D9F80040CC46D1F8048094435FEA80
:10181000C82800D51443CCF80040DAF80040D4467C
:10182000D1F8048094435FEA882800D51443CCF8AB
:101830000040DBF80040DC46D1F8048094435FEAC6
:10184000883800D51443CCF80040DEF80040F44658
:10185000D1F8048094435FEAC83800D51443CCF82B
:1018600000405B1C0C682246DC407FF409AF05B0E9
:10187000BDE8F08F08040140001002400000014064
:101880000004004800080048000C00480010004810
:10189000001400480AB181617047816270470000FE
:1018A00001488068704700000000002002488168FD
:1018B00042681144816070470000002010B5002488
:1018C000032000F073F80F2000F008F808B101249D
:1018D00001E000F025F8204610BD000070B50E4E66
:1018E00005460024706898B14FF47A71B1FBF0F0AE
:1018F0000A490968B1FBF0F000F03FFF40B9102D34
:1019000006D200222946501E00F030F8356000E073
:101910000124204670BD0000000000200C000020C3
:101920000A4882B0016E41F001010166016E01F0CA
:1019300001010091816D41F080518165806D00F061
:101940008050009002B000F0A1B8000000100240EA
:10195000002809DB00F01F020121914040098000AE
:1019600000F1E020C0F8001170470000F0B40E4B09
:101970001B680C46C3F30223C3F10705042D00D9ED
:101980000425191D072901D2002300E0DB1E0126D2
:1019900006FA05F1491E214099409E40761E1640E8
:1019A0003143F0BC03F0F7B80CED00E0064900F05D
:1019B000070208684FF6FF03184040EA0220034A76
:1019C00010430860704700000CED00E00000FA05CD
:1019D0002B492C4B0A6832214A432B4940B1B0F5C0
:1019E000007F086829D020F4C06040F480602CE0BB
:1019F0000868C0F34120022804D051F8800F20F479
:101A0000807022E0D1F8800020F48070C1F880005E
:101A1000086820F4C06040F400700860B2FBF3F086
:101A2000401C00E0401E4A69520501D50028F9D14A
:101A3000486940050AD503207047C0F341200228B9
:101A400006D051F8800F40F4807008600020704785
:101A5000D1F8800040F48070C1F88000086820F45C
:101A6000C06040F400700860B2FBF3F0401C00E07E
:101A7000401E4A695205DBD50028F9D1D8E700009D
:101A80000C00002040420F000070004002488168B6
:101A900041F4804181607047007000402DE9F843B7
:101AA0000446006800269D4D00035ED5A86D002702
:101AB000C00008D4A86D40F08050A865A86D01272B
:101AC00000F080500090DFF85892D9F8001041F4EF
:101AD0008071C9F80010FFF7E3FE804606E000BF02
:101AE000FFF7DEFEA0EB080002282BD8D9F8000093
:101AF000C005F5D5D5F8900010F4407014D0216CD5
:101B0000814211D0D5F89000D5F8901020F44070A3
:101B100041F48031C5F89010D5F8901021F480314F
:101B2000C5F89010C5F89000C00711D0FFF7B8FEB7
:101B3000804641F2883907E0FFF7B2FEA0EB0801CA
:101B4000494501D903260BE0D5F890008007F3D56D
:101B5000D5F89000216C20F440700843C5F890003F
:101B60001FB1A86D20F08050A8652078C00707D06D
:101B7000D5F88800616820F003000843C5F88800A4
:101B80002078800707D5D5F88800A16820F00C00E0
:101B90000843C5F888002078400707D5D5F88800A5
:101BA000E16820F030000843C5F88800207800077D
:101BB00007D5D5F88800216920F0C0000843C5F892
:101BC00088002078800607D5D5F88800616920F460
:101BD00040600843C5F888002078400607D5D5F84E
:101BE0008800A16920F440500843C5F88800207897
:101BF000000607D5D5F88800E16920F44040084385
:101C0000C5F888002088C00507D5D5F88800216A66
:101C100020F440300843C5F888002088800507D5A7
:101C2000D5F88800616A20F440200843C5F8880090
:101C3000208840050FD5D5F88800A16A20F440100F
:101C40000843C5F88800A06AB0F5801F03D1E86892
:101C500040F48010E860208800050FD5D5F8880092
:101C6000E16A20F440000843C5F88800E06AB0F556
:101C7000800F03D1E86840F48010E8602088C00439
:101C80000FD5D5F88800216B20F040700843C5F8C7
:101C90008800206BB0F1807F03D1E86840F48010A9
:101CA000E86020884FF0006180040ED5D5F88800E8
:101CB000626B20F040601043C5F88800606B88427A
:101CC00003D1E86840F48010E860208840040ED515
:101CD000D5F88800A26B20F040601043C5F888005A
:101CE000A06B884203D1E86840F48010E860208847
:101CF00000040FD5D5F88800E16B20F04050084370
:101D0000C5F88800E06BB0F1805F03D1E86840F46B
:101D10008030E8603046BDE8F883000000100240E3
:101D2000007000402DE9F0470E4605004FF0000717
:101D300025D0DFF8AC81D8F8000000F00F00B042E9
:101D40000CD2D8F8001021F00F013143C8F8001070
:101D5000D8F8000000F00F00B04210D12968614CA3
:101D6000C80741F2883A5AD06868DFF87C910328A6
:101D700008D0022820682DD0400500282CDB012047
:101D8000BDE8F08720688001F9D5E06800F0030223
:101D9000E068C0F30310401C032A19D0534A00BF67
:101DA000B2FBF0F0E268C2F306225043E268C2F3ED
:101DB0004162521C5200B0FBF2F0484517D9A068AE
:101DC00010F0F00F0CD0880711D5A86840B10EE0D4
:101DD000474AE5E78003D0E700F0B6F8484506D962
:101DE000A06820F0F00040F08000A0608027A0688C
:101DF000696820F003000843A060FFF751FD8146A9
:101E000006E000BFFFF74CFDA0EB090151453AD8B1
:101E1000A068696800F00C00B0EB810FF2D128686F
:101E2000810714D5400703D5A06840F4E060A060A6
:101E30002878000705D5A06820F4605040F4E060E1
:101E4000A060A068A96820F0F000084304E0802F9B
:101E500003D1A06820F0F000A060D8F80010404640
:101E600001F00F01B14216D9016821F00F01314391
:101E70000160FFF715FD074607E000BFFFF710FD03
:101E8000C11B514501D903207AE7D8F8000000F0C2
:101E90000F00B042F2D12878400705D5A068E96864
:101EA00020F4E0600843A0602878000706D5A06809
:101EB000296920F4605040EAC100A06000F044F8B5
:101EC000A1680C4AC1F30311515C01F01F01C84025
:101ED0000949086009480068BDE8F047FFF7FEBC03
:101EE000002002400010024000B4C4040024F400AA
:101EF00000127A00324D00080C0000200000002083
:101F00000548064900688968054AC1F30221515C09
:101F100001F01F01C84070470C0000200010024073
:101F2000424D00080548064900688968054AC1F322
:101F3000C221515C01F01F01C84070470C00002015
:101F400000100240424D0008184910B58868C0F3DF
:101F500081021748012A0BD08A684310C2F381021C
:101F6000022A06D08A68C2F38102032A03D0002025
:101F700010BD184610BDCA6802F00304CA68C2F357
:101F80000312521C032C02D0B0FBF2F001E0B3FBB1
:101F9000F2F0CA68C968C2F306225043C1F3416136
:101FA000491C4900B0FBF1F010BD000000100240D8
:101FB0000024F4002DE9F84304007AD02078F84D8D
:101FC000C00747D0A868E96800F00C0001F00301E1
:101FD0000C2802D0082817D001E0032914D060682B
:101FE000B0F5803F17D0B0F5A02F286817D020F4A7
:101FF00080302860286820F4802028606068E0B184
:10200000FFF74EFC064614E02868800322D560687E
:102010000028D2D01EE0286840F48030EDE740F47C
:1020200080202860F7E700BFFFF73AFC801B642898
:1020300070D828688003F7D50CE0FFF731FC06461E
:1020400005E000BFFFF72CFC801B6428F0D828684F
:102050008003F7D4207880074CD5A868E96800F0A1
:102060000C0001F003010C2802D004280DD001E07F
:1020700002290AD0E068002828682BD040F480703C
:102080002860FFF70DFC064619E02868400502D5D8
:10209000E068002891D06868217C20F0FE4040EA8A
:1020A00001606860BF480068FFF718FC002800D195
:1020B00020E072E1FFF7F4FB801B0228B8D8286803
:1020C0004005F7D56868217C20F0FE4040EA0160B9
:1020D00068600FE020F480702860FFF7E1FB06469F
:1020E00005E000BFFFF7DCFB801B0228A0D82868B2
:1020F0004005F7D42078000729D560690028D5F875
:10210000940013D040F00100C5F89400FFF7C8FB1D
:10211000064606E090E000BFFFF7C2FB801B0228E6
:1021200086D8D5F894008007F6D510E020F001009D
:10213000C5F89400FFF7B4FB064604E0FFF7B0FBD8
:10214000801B022878D8D5F894008007F6D4207830
:10215000400761D5A86D0026C00008D4A86D40F0E6
:102160008050A865A86D012600F0805000908E4830
:102170000168C90511D40168804641F4807101608D
:10218000FFF78EFB074604E0FFF78AFBC01B02281F
:1021900052D8D8F80000C005F6D5A068012815D09F
:1021A0000528D5F8900016D020F00100C5F8900061
:1021B000D5F8900020F00400C5F89000A06841F226
:1021C0008838B8B1FFF76CFB07460EE0D5F89000F1
:1021D00040F00100F0E740F00400C5F89000F5E79A
:1021E000FFF75EFBC11B414526D8D5F8900080075C
:1021F000F6D50CE0FFF754FB074604E0FFF750FB71
:10220000C11B414518D8D5F890008007F6D41EB1FF
:10221000A86D20F08050A8652078800629D5A06997
:102220000028D5F8980013D040F00100C5F89800B8
:10223000FFF736FB064606E075E000BFFFF730FB10
:10224000801B02286FD8D5F898008007F6D510E0DB
:1022500020F00100C5F89800FFF722FB064604E0D5
:10226000FFF71EFB801B02285DD8D5F89800800779
:10227000F6D4E069F0B3A968C1F3810103295DD008
:102280000228286820F08070286003D0FFF708FB40
:1022900004464BE0FFF704FB064604E0FFF700FBB3
:1022A000801B02283FD828688001F7D4F4E9080190
:1022B0006FF00F0202EB01110843218A5204490812
:1022C00002EB4151A26841EA02210843217D4FF00F
:1022D0007E42490802EB41610843217B40EAC1602C
:1022E000E968324A11400843E860286840F080708D
:1022F000286000E05EE0E86840F08070E860FFF78A
:10230000CFFA044605E000BFFFF7CAFA001B022817
:1023100009D828688001F7D54CE000BFFFF7C0FA64
:10232000001B022802D90320BDE8F8832868800139
:10233000F4D4E8681E490840E8603BE00128F3D087
:10234000E868226A00F00301914226D1616A00F038
:10235000F0020901103991421FD1A26A00F4FE4136
:10236000B1EB022F19D194F82C2000F07841B1EB99
:10237000C26F12D1218E00F4C00249084905A1F5AF
:102380000011914209D194F8341000F0C06049085E
:102390004906A1F1007181420CD00120C4E7000080
:1023A0000010024000000020007000400C809F01DF
:1023B000FCFFEEFE0020B7E770B5040009D0606AAC
:1023C000002540B125616561A56294F85D0040B1CA
:1023D0000CE0012070BD6068B0F5827FF4D0E5614B
:1023E000F2E784F85C50204600F05CF8022084F8A4
:1023F0005D002068016821F040010160E1684FF450
:10240000E062914201D9002001E04FF48050B1F523
:10241000706F02D0914200D0A562A188228901F498
:10242000827102F404421143227C02F00202114341
:10243000227D02F001021143228B02F4007211434B
:10244000227F02F03802114394F8202002F080022B
:102450001143228D02F40052114322681160A169D8
:10246000042202EA114194F8242000F4805002F082
:102470001002114394F8342002F008021143A2899B
:1024800002F4706211430143206841602068C16911
:1024900021F40061C1612566012084F85D000020FF
:1024A00070BD000010B586B0044614216846FDF7E3
:1024B000E9FE1249206888421DD11148016E41F49D
:1024C00080510166016E01F480510591C16C41F0AB
:1024D0000201C164C06C694600F00200059038201A
:1024E00000900220019000200290039005200490AB
:1024F0000448FFF7B5F806B010BD000000300140F9
:1025000000100240000400482DE9FF5F1D4693467D
:1025100004464FF001090E9EFFF7C2F9074694F8F2
:102520005D006168012806D0B1F5827F39D1A168CC
:10253000B1BB042835D1019800287CD0BBF1000F35
:10254000FBD0002DF9D094F85C00012829D04FF081
:10255000010A84F85CA094F85D00042802D00520EC
:1025600084F85D004FF00008C4F86080C4F840B003
:10257000A4F84650A4F844500199A163E587A587C3
:10258000C4F84C80C4F85080E0684FF4E0618842A1
:1025900001D8012D09D92068426822F4805208E050
:1025A000FFE7022004B0BDE8F09F2068426842F4D3
:1025B0008052426020680268520603D4026842F0EA
:1025C00040020260E0688842606846D908B1012D87
:1025D0003BD1A06B01882068C160A06B801CA06308
:1025E000E08F401EE08730E02068816889070FD5C2
:1025F000E18F69B1B9F1010F0AD1A16B0988C160FE
:10260000A06B801CA063E08F401EE0874FF00009A4
:1026100020688168C90711D0B4F8461071B1C0684C
:10262000216C0880206C801C2064B4F84600401E99
:10263000A4F8460000E09EE04FF00109FFF730F9F2
:10264000C01BB04201D3701C74D1E08F0028CBD1E5
:10265000B4F846000028C7D175E008B1012D6BD150
:10266000E08F0128A06B08D921680088C860A06BA2
:10267000801CA063E08F801E07E02168007808734B
:10268000A06B401CA063E08F401EE08754E02068F0
:10269000816889071AD5E18FC1B1B9F1010F15D150
:1026A000E18F0129A16B07D90988C160A06B801C4B
:1026B000A063E08F801E06E009780173A06B401CC8
:1026C000A063E08F401EE0874FF00009206881681A
:1026D000C90728D0B4F8461029B3B4F84610012928
:1026E00014D9C068216C0880206C801C2064B4F868
:1026F0004600801EA4F84600B4F84600012810D811
:102700002068416841F4805141600AE0007B216CFF
:102710000870206C401C2064B4F84600401EA4F8E9
:1027200046004FF00109FFF7BBF8C01BB04202D3CF
:10273000701C01D012E08EB1E08F0028A7D1B4F850
:1027400046000028A3D13A463146204601F057FA08
:1027500050B12020206684F85C800CE084F85DA0F5
:1027600084F85C8003201DE784F85DA084F85C8019
:10277000206E0028F7D0012014E710B5401EB0F1FC
:10278000807F01D3012010BD4FF0E02460610F2154
:10279000601702F000FA0020A061072020610020ED
:1027A00010BD70477047704730B590F83C20012A43
:1027B00042D0012280F83C20CA688B6822F4407223
:1027C0001A434B6822F480621A430B6822F40062B9
:1027D0001A430B6922F480521A434B6922F40052C7
:1027E0001A430B6B22F480421A430B8B22F47022A3
:1027F00042EA0342CB6922F080521A430F4D03682C
:102800000024AB4202D00E4DAB4210D10D8D22F40C
:10281000700242EA05520D6A22F080722A434D6A24
:1028200022F000722A43C96A22F000520A435A6415
:1028300080F83C40002030BD022030BD002C01401B
:10284000003401407047704770470000F0B590F8C1
:102850003C20012A3AD0012580F83C50022280F821
:102860003D2003685A689C68194E1A4FB34201D044
:10287000BB4204D122F4700C4A6842EA0C02DFF831
:1028800058C002EA0C02D1F800C04CEA020CC3F8AE
:1028900004C00268B2420DD0B2F1804F0AD00F4B93
:1028A0009A4207D00E4B9A4204D0BA4202D00D4B46
:1028B0009A4204D1896824F080031943916080F81A
:1028C0003D50002180F83C100846F0BD0220F0BDCC
:1028D000002C0140003401408FFFFFFD0004004048
:1028E000000800400040014010B50446022249B1F2
:1028F00004290ED0082913D094F84700012816D0D7
:10290000012010BD94F844000128F9D184F8442036
:102910000FE094F845000128F2D184F8452008E042
:1029200094F846000128EBD184F8462001E084F8B1
:1029300047200422206801F036FB2068416C41F4F6
:10294000004141641049206888420ED0B0F1804FA8
:102950000BD00E49884208D00D49884205D00D4958
:10296000884202D00C49884207D181680B4A114045
:10297000062906D0B1F5803F03D0016841F001017E
:102980000160002010BD0000002C01400004004048
:1029900000080040003401400040014007000100F1
:1029A000704710B5040003D094F83D0010B107E063
:1029B000012010BD002084F83C00204600F022F8E1
:1029C000022084F83D00211D206801F083FA0120D7
:1029D00084F8480084F83E0084F83F0084F8400002
:1029E00084F8410084F8420084F8430084F84400ED
:1029F00084F8450084F8460084F8470084F83D00D8
:102A0000002010BD08B5214A01682148914226D115
:102A1000016E41F400610166006E002200F4006066
:102A2000009011461820FEF7A1FF1820FEF790FF36
:102A3000002211461920FEF799FF1920FEF788FFA2
:102A4000002211461A20FEF791FF1A20FEF780FFA0
:102A5000002211461B20FEF789FF1B2010E00D4AC3
:102A6000914211D1816D41F010018165806D00228C
:102A700000F01000009011463620FEF777FF362058
:102A8000BDE80840FEF764BF08BD0000002C01400F
:102A9000001002400010004090F83D10012901D0C4
:102AA00001207047022180F83D100168CA6842F099
:102AB0000102CA600068104988420ED0B0F1804F10
:102AC0000BD00E49884208D00D49884205D00D49E7
:102AD000884202D00C49884207D181680B4A1140D4
:102AE000062906D0B1F5803F03D0016841F001010D
:102AF0000160002070470000002C014000040040ED
:102B0000000800400034014000400140070001007F
:102B100070B5044690F83C000025012814D0012629
:102B200084F83C60022084F83D0022689068364BAF
:102B3000184020F47F409060086870282ED010DC88
:102B400010F00F0F03D021E04FF0020070BD4FEAEC
:102B50002012072A1AD2DFE802F0525252524A38A3
:102B600040002A4BC21A984249D009DCB0F5805F78
:102B70000DD0B0F5005F1CD0B0F1101F06D13EE0C3
:102B8000102A3CD0202A3AD0502A38D0012584F887
:102B90003D60002084F83C00284670BDCB68D1E938
:102BA0000121206801F00CFA2068816841F077016A
:102BB00009E0CB68D1E90121206801F001FA206821
:102BC000816841F480418160E1E7CA684968206812
:102BD00001F0AAFB5021206806E0CA684968206815
:102BE00001F0D0FB6021206801F0F4F9CFE7CA685A
:102BF0004968206801F098FB40212068F4E72268CA
:102C000001461046F0E7000088FFCEFF20001000CC
:102C100070472DE9F04104460068C66805694FF029
:102C20000007A90713D5B10711D5F91E01610120CD
:102C30002077206880698007204602D0FFF7E8FFF0
:102C400004E000F001F9204600F0C3F92777680797
:102C500016D5700714D521686FF0040008610220B2
:102C600020772068806910F4407F204602D0FFF76B
:102C7000CFFF04E000F0E8F8204600F0AAF927773B
:102C8000280715D5300713D521686FF008000861B3
:102C9000042020772068C0698007204602D0FFF713
:102CA000B7FF04E000F0D0F8204600F092F9277753
:102CB000E80616D5F00614D521686FF010000861FB
:102CC000082020772068C06910F4407F204602D099
:102CD000FFF79EFF04E000F0B7F8204600F079F916
:102CE0002777E80708D0F00706D021686FF00100C9
:102CF0000861204600F0ECF9280601D4A80408D5A4
:102D0000300606D521686FF4025008612046FFF7AF
:102D100049FDE80508D5300606D521686FF48070B6
:102D200008612046FFF73DFD680608D5700606D508
:102D300021686FF040000861204600F0DDF9A80628
:102D400008D5B00606D521686FF02000086120463E
:102D5000FFF729FDE80208D5F00206D521686FF4D7
:102D6000801008612046FFF76EFDA80208D5B0026A
:102D700006D521686FF4001008612046FFF762FD58
:102D8000680208D5700206D521686FF480000861DA
:102D90002046FFF759FD28020AD5300208D52168E0
:102DA0006FF4000008612046BDE8F041FFF7F8BD70
:102DB000BDE8F081F0B587B0044614216846FDF700
:102DC00061FA1E492068884236D11D48C16C41F025
:102DD0000201C164C16C01F002010591C16C41F0B6
:102DE0000101C164C06C022500F0010005904FF4A0
:102DF000C04000900024CDE901540626114FCDE9D2
:102E0000034669463846FEF72BFCA8030090CDE93F
:102E100001540420CDE9034069463846FEF720FC02
:102E20004FF4E0600090CDE90154CDE903466946D6
:102E30004FF09040FEF714FC07B0F0BD002C0140AD
:102E40000010024000040048704770B5044690F836
:102E50003C0000260D4601280BD0012084F83C00E0
:102E60000C2A4AD007DC82B1042A20D0082A06D1D5
:102E700031E0022070BD102A53D0142A63D00126FD
:102E8000002084F83C00304670BD206801F0ACF8AA
:102E90002068816941F0080181612068816921F021
:102EA00004018161206881692A69114311E0206869
:102EB00001F0ECF82068816941F4006181612068CB
:102EC000816921F480618161206881692A6941EA10
:102ED00002218161D4E7206801F022F92068C169EC
:102EE00041F00801C1612068C16921F00401C1619C
:102EF0002068C1692A69114311E0206801F05AF97C
:102F00002068C16941F40061C1612068C16921F490
:102F10008061C1612068C1692A6941EA0221C161F9
:102F2000AEE7206801F090F92068016D41F00801DA
:102F300001652068016D21F0040101652068016DC3
:102F40002A69114311E0206801F0B6F92068016D8B
:102F500041F4006101652068016D21F48061016523
:102F60002068016D2A6941EA0221016588E710B5F0
:102F7000040003D094F83D0010B107E0012010BD1B
:102F8000002084F83C00204600F022F8022084F85B
:102F90003D00211D206800F09DFF012084F84800BD
:102FA00084F83E0084F83F0084F8400084F8410033
:102FB00084F8420084F8430084F8440084F8450013
:102FC00084F8460084F8470084F83D00002010BDD6
:102FD0007047704730B50446022269B1042912D007
:102FE000082917D00C291CD0102921D094F84300AF
:102FF000012824D0012030BD94F83E000128F9D1E9
:1030000084F83E201DE094F83F000128F2D184F8B6
:103010003F2016E094F840000128EBD184F84020CE
:103020000FE094F841000128E4D184F8412008E041
:1030300094F842000128DDD184F8422001E084F8B0
:1030400043200122206800F0A1FF194B2068194994
:10305000194A984209D0884207D0904205D0174DAE
:10306000A84202D0164DA84203D1456C45F4004554
:103070004564206898420CD0B0F1804F09D0114BC4
:10308000984206D0104B984203D0884201D090421B
:1030900007D181680D4A1140062906D0B1F5803F5D
:1030A00003D0016841F001010160002030BD000043
:1030B000002C014000340140004001400044014028
:1030C00000480140000400400008004007000100E3
:1030D0000246074800B5824201D100F0EDFE0548E6
:1030E000824203D15DF804EB00F0DABE00BD0000BF
:1030F00048010020FC000020704790F8841001294E
:1031000018D0012180F884102421C0F888100168AB
:103110000A680B6823F001030B6022F000510022C3
:103120004266036819602021C0F8881080F8842066
:10313000104670470220704710B50446D0F88C0046
:10314000202801D0022010BD61B15AB10120E066F3
:1031500000202067204601F079FC0028F3D1E16EC1
:10316000012901D0012010BD2268102111622268BE
:1031700052E8001F41F0100142E80013002BF6D185
:1031800010BD000010B50C4600680F49884219D1E7
:10319000802C17D880220D490D48FFF7CDFF4FF640
:1031A000FF73224609490A4800F0C6FA0948006838
:1031B000016821F004010160BDE81040802103484E
:1031C000FDF760B810BD0000004800406803002013
:1031D0009401002028020020704770B5044690F842
:1031E000840001281DD0012084F884002420C4F824
:1031F000880020680568026822F0010202602068E9
:10320000826822F060620A438260204601F030F951
:10321000206805602020C4F88800002084F884001D
:1032200070BD022070BD70B5044690F8840001287E
:103230001DD0012084F884002420C4F88800206870
:103240000568026822F0010202602068826822F0AC
:1032500060420A438260204601F00AF92068056056
:103260002020C4F88800002084F8840070BD02206B
:1032700070BD70477047000010B500680A49884269
:1032800010D1802209490A48FFF756FF0948006813
:10329000016821F004010160BDE81040802103486D
:1032A000FCF7F0BF10BD000000480040680300209C
:1032B00094010020280200202DE9F0410368044613
:1032C000D86919689A6840F60F0528424FF0000542
:1032D0004FF002060AD187067ED501F0200702F0E2
:1032E000805C57EA0C0777D0616F42E1B64FDFF898
:1032F000DCC2174001EA0C0C57EA0C0C6CD05FEAF8
:10330000C07C0CD05FEAC15C09D54FF0010CC3F85A
:1033100020C0D4F8903043F00103C4F89030830704
:1033200009D5D30707D023681E62D4F8903043F044
:103330000403C4F8903043070AD5D30708D02668A1
:1033400004233362D4F8903043F00203C4F8903081
:1033500003070CD501F020033B4308D0266808235F
:103360003362D4F8903043F00803C4F8903003057A
:103370000BD54B0109D526684FF400633362D4F8AE
:10338000903043F02003C4F89030D4F89030002BF4
:103390003DD0800609D501F0200002F0805108439D
:1033A00003D0616F09B120468847D4F890002168A6
:1033B0008968490602D410F0280F2AD0204601F06F
:1033C000C9F92068806840061ED52068083050E89A
:1033D000001F21F0400100E021E040E80012002A37
:1033E000F3D1D4F8800078B179498163D4F88000B2
:1033F000FDF7E2FF00280AD0D4F88000816B00E0DE
:103400002046BDE8F04108472046FFF735FFBDE8FC
:10341000F0812046FFF730FFC4F89050F7E7D4F86A
:103420006CC02027BCF1010F7ED15FEAC06C7BD558
:103430005FEAC16C78D51020186220688068400669
:1034400051D5D4F880100A6850680004000C3ED0B2
:10345000B4F85C3083423AD9A4F85E00086800688A
:1034600080062CD4216851E8000F20F4807041E8D8
:103470000002002AF6D12068083050E8001F21F031
:10348000010140E80012002AF5D12068083050E818
:10349000001F21F0400140E80012002AF5D1C4F8D5
:1034A0008C70E566216851E8000F20F0100041E8BB
:1034B0000002002AF6D1D4F88000FDF745FF266708
:1034C000B4F85C00B4F85E10401A81B207E0B4F8BA
:1034D0005C1081429BD11068800698D526672046F3
:1034E000FFF750FE93E7B4F85C00B4F85E10401AA2
:1034F00081B2B4F85E00002889D0002987D0226804
:1035000052E8000F20F4907042E80003002BF6D13F
:103510002D4BDB432068083050E8002F1A4040E86C
:10352000002CBCF1000F00E00EE0F3D1C4F88C7069
:10353000E5666567206850E8002F22F0100240E839
:103540000023002BF6D1C9E7C60209D5560207D5DC
:103550004FF4801018622046BDE8F041FFF78ABEA4
:1035600003060AD501F0800302F40002134304D0DD
:10357000A16F00297FF444AF49E7420611D54A06FE
:103580000FD52046016851E8002F22F0400241E8A3
:103590000023002BF6D1C0F88870856700F027F96A
:1035A00035E7020206D54A0004D52046BDE8F041C1
:1035B000FFF75FBEC00195D5002993DA2046BDE82C
:1035C000F041FFF709BE00000100001020010004D7
:1035D0002946000810B5040003D0D4F8880010B1C3
:1035E00007E0012010BD002084F88400204600F090
:1035F00027F82420C4F888002068016821F0010120
:103600000160A06A10B1204600F054FF204601F08E
:10361000E3F80128E6D02068416821F49041416038
:103620002068816821F02A0181602068016841F0EA
:10363000010101602046BDE8104000F09FBF00007E
:10364000F0B597B00646142111A8FCF71BFE4421E3
:103650006846FCF717FE3249306888425DD1042085
:103660000024009003946846FEF718FA08B1FDF7AD
:103670006EF92C48816D41F480218165816D01F4E2
:1036800080211691C16C41F00201C164C06C11A986
:1036900000F0020016904FF4406011900220CDE936
:1036A00012040720CDE914401F48FDF7D9FF204D33
:1036B0001E48802728601C20C5E90104C5E903478E
:1036C0006C61AC61EC6128462C62FDF70FFF08B11C
:1036D000FDF73DF9C6F88050AE62154D13486035D0
:1036E000143028601D20686005F10801102081E871
:1036F00091006C61AC61EC6128462C62FDF7F6FE2E
:1037000008B1FDF724F9F567002211462720AE62C3
:10371000FEF72CF92720FEF71BF917B0F0BD0000CB
:103720000048004000100240000400480800024029
:1037300028020020704770472DE9F84F0446D0F862
:103740008800984615460E46202802D00220BDE883
:10375000F88F96B38DB30020C4F890004FF0210984
:10376000C4F888901834FEF79BF8A5878246E58751
:1037700054F8100C183CB0F5805F01D1206910B1ED
:103780003546002600E000255FF02007B4F856001B
:1037900053464FF00002CDF80080D8B1802120467A
:1037A00001F0A8F9D8B955B115F8010B2168886264
:1037B000D4F8881039EA010006D00120C7E736F8AE
:1037C000020BC0F30800F1E7B4F85600401EA4F85D
:1037D0005600DBE74021204601F08CF918B1C4F80F
:1037E00088700320B3E7C4F888700020AFE7704703
:1037F000FEE700EB8100006E00F0F8407047806843
:10380000C0F3C00070478068C0F3800070478068D4
:10381000C0F380007047C06810F4406F01D00020F2
:10382000704701207047042303EAD15310B51844B0
:103830004369C1F3045107248C40A3438A401343D6
:10384000436110BD00EB8100016E21F00041114386
:103850000166704730B58BB000240894099420218C
:1038600068460A94FCF70EFD1C484FF0A041042561
:1038700001604FF40021C0E90114C4600461C0E993
:103880000545047744770121016280F82440C46231
:10389000046380F83840C46380F84040FDF714FCAE
:1038A00008B1FDF754F808A90C480894FDF756F83C
:1038B00008B1FDF74CF80A4800900620CDE9010454
:1038C0007F200594CDE9030569460448FDF7B2F869
:1038D000002801D0FDF73BF80BB030BD2C000020D4
:1038E0000008302E114808B5816C41F00401816454
:1038F000816C01F004010091816C41F0010181644F
:10390000806C002200F00100009011460B20FEF7B1
:103910002DF80B20FEF71CF8002211460C20FEF7B4
:1039200025F8BDE808400C20FEF712B80010024050
:103930002DE9F04186B014216846FCF7A3FC2B4822
:10394000C16C41F00401C164C16C01F00401059136
:10395000C16C41F02001C164C16C01F020010591EE
:10396000C16C41F00101C164C16C01F0010105911C
:10397000C16C41F00201C164C06C4FF0904700F08F
:1039800002000590012210213846FDF783FFDFF881
:103990006080012250214046FDF77CFF781400260C
:1039A000CDE900060225694602954046FDF758FE1E
:1039B00001241020CDE9000469463846CDE90245CE
:1039C000FDF74EFE5020CDE9000469464046CDE9A2
:1039D0000245FDF745FEE002CDE900066946029486
:1039E0004046FDF73DFE06B0BDE8F0810010024004
:1039F00000080048124810B5104901604FF4827168
:103A0000416000214FF4E062C0E90212022202612B
:103A100001224261520282612822C0E90721072265
:103A20004162C0E90A1201634163FEF7C5FC002848
:103A300003D0BDE81040FCF78ABF10BD0030014044
:103A40009800002010B59CB0002419941A94179483
:103A50001894149415941C210DA81694FCF712FCCC
:103A600034216846FCF70EFC3648354901601421C4
:103A7000416020218160C721C0E903148021C0E991
:103A80000541FEF78EFF08B1FCF761FF4FF480504F
:103A9000179017A92B48FFF73BF808B1FCF757FF21
:103AA0002848FFF764FA08B1FCF751FF1494159405
:103AB00014A924481694FEF7C9FE08B1FCF747FF85
:103AC0006020CDE90D040F941094119412940022FB
:103AD0000DA91C481394FFF7B8F908B1FCF737FF9C
:103AE00004220DA91748FFF7B0F908B1FCF72FFF22
:103AF00008220DA91348FFF7A8F908B1FCF727FF22
:103B00004FF4006000904010CDE901040620CDE99B
:103B100003044FF40050CDE905040003CDE908404B
:103B200007940A940B94694606480C94FEF73CFEF1
:103B300008B1FCF70CFF0348FFF73CF91CB010BDBF
:103B4000002C0140FC0000203EB500240F480094EA
:103B500001940D49029401605321C0E9011440F21F
:103B6000E731C16080218161FEF71BFF08B1FCF7DE
:103B7000EEFE0094694605480294FEF767FE0028B1
:103B800001D0FCF7E4FE3EBD0010004048010020DB
:103B9000184810B5164901604FF4E1314160002129
:103BA00081600C22C160C0E904128161C1610162BF
:103BB00041628162FFF70EFD08B1FCF7C8FE0021EB
:103BC0000C48FFF730FB08B1FCF7C1FE00210948A3
:103BD000FFF703FB08B1FCF7BAFE0648FFF78DFAC2
:103BE000002803D0BDE81040FCF7B1BE10BD0000B6
:103BF0000048004094010020FEE7FEE77047F8B55A
:103C000015460E460B460092044600224FF4C05162
:103C100000F01AF888B9334600228021204600952A
:103C200000F082F848B9334600224FF4C0612046C4
:103C3000009500F009F8002804D0206E40F0200024
:103C400020660320F8BD00002DE9FE4F4FF0000A6A
:103C5000984617460E4604460C9D8DF804A0FDF7C5
:103C60001FFE411BA8EB0105FDF71AFE81462068E7
:103C70004FF4C06B0C3002902A480068C0EBC000C3
:103C800000EB8000000D6843009016E05E4506D111
:103C90002FB9029800788DF804009DF80400B8F15F
:103CA000FF3F0AD0FDF7FCFDA0EB0900A8420CD2B3
:103CB0005DB1009898B3401E009020688068304045
:103CC000B842E3D10020BDE8FE8F2068416821F0B2
:103CD000E00141606068B0F5827F0BD1A068B0F56B
:103CE000004F02D0B0F5806F04D12068016821F048
:103CF00040010160A06AB0F5005F09D12068016849
:103D000021F4005101602068016841F40051016014
:103D1000012084F85D0084F85CA00320D3E7FFE76E
:103D20000025CAE70C0000202DE9F8431E46914605
:103D300088460446089DFDF7B3FD401B351AFDF784
:103D4000AFFD074626480068C0F3CB3068430AE061
:103D5000701C09D0FDF7A4FDC01BA8420FD275B19D
:103D60000098B8B3401E00902068816838EA0100CE
:103D700033D000214945EBD10020BDE8F88320680D
:103D8000416821F0E00141606068B0F5827F0BD1AD
:103D9000A068B0F5004F02D0B0F5806F04D1206864
:103DA000016821F040010160A06AB0F5005F09D10F
:103DB0002068016821F4005101602068016841F425
:103DC00000510160012084F85D00002084F85C004F
:103DD0000320D2E7FFE70025C6E70121CAE700007C
:103DE0000C0000207047FDF761BD00B593B038218D
:103DF0006846FCF747FA14210EA8FCF743FA0020A6
:103E0000FDF7E6FD0220C10103914021049101214B
:103E1000CDE9080100901521CDE90A1007900C901A
:103E20000D906846FEF7C6F808B172B6FEE70F209F
:103E30000E9003200F9000201090119012900421FA
:103E40000EA8FDF76FFF002801D072B6FEE713B091
:103E500000BD00000248016841F470010160704734
:103E600088ED00E00148FEF7D4BE0000FC00002011
:103E70000148FEF7CEBE0000FC0000200148FEF71E
:103E8000C8BE0000FC0000200148FEF7C2BE0000D2
:103E9000FC0000200148FEF7BCBE000048010020E5
:103EA00004484188491C89B24180642901D300211A
:103EB000418070471000002005480188491C89B2E4
:103EC0000180B1F57A7F01D30021018070470000A5
:103ED000100000202DE9F0430268254B254D264EA9
:103EE000264C4FF08049984207D0484505D0A8425B
:103EF00003D0B04201D0A04203D122F070074A683B
:103F00003A431F4FDFF87CC0DFF87C8098420DD029
:103F100048450BD0A84209D0B04207D0A04205D0F6
:103F2000B84203D0604501D0404503D122F440752A
:103F3000CA682A434D6922F080022A438D68C5620F
:103F40000D688562984207D0A04205D0B84203D0E0
:103F5000604501D0404501D109690163016841F024
:103F600004010160012141610260BDE8F0830000AD
:103F7000002C0140000400400008004000340140D3
:103F800000400140004401400048014010B501F0EC
:103F90001F030121046A99408C430462016A9A401C
:103FA0001143016210BD10B501F00F030421046A32
:103FB00099408C430462016A9A401143016210BD2A
:103FC00010B5846842EA032224F47F440A43224362
:103FD000826010BD8268034B1A400A4342F0070119
:103FE000816070478FFFCFFF2DE9F043056A026AB9
:103FF00022F001020262436882691E4C25F002052C
:1040000022400C6822F0030214438A681B4E2A43A4
:10401000194D1B4FDFF86CC0DFF86C90A84207D039
:10402000B04205D0B84203D0604501D048450AD11E
:10403000D0F8208028F00408C0F8208022F008087A
:10404000CA6842EA0802A84207D0B04205D0B84286
:1040500003D0604501D0484505D14D6923F4407334
:104060001D438B692B43436084614968416302624D
:10407000BDE8F0838FFFFEFF002C014000340140BB
:10408000004001400044014000480140F0B5056A8D
:10409000026A22F010020262426883691A4C1C4EC6
:1040A00023400C6823F4407343EA042425F02003E2
:1040B0008D6843EA0513154DA84201D0B04208D1DE
:1040C000076A27F040070762CF6823F0800343EABE
:1040D0000713A8420AD0B04208D00E4DA84205D01E
:1040E0000D4DA84202D00D4DA84207D14D6922F4D2
:1040F000406242EA85028D6942EA8502426084613B
:10410000496881630362F0BDFF8FFFFE002C014010
:10411000003401400040014000440140004801409B
:10412000F0B5056A026A22F4807202624268C369CD
:104130001A4C1C4E23400C6823F003031C4325F447
:1041400000738D6843EA0523154DA84201D0B042A3
:1041500008D1076A27F480670762CF6823F40063F9
:1041600043EA0723A8420AD0B04208D00E4DA84225
:1041700005D00E4DA84202D00D4DA84207D14D6981
:1041800022F4405242EA05128D6942EA0512426069
:10419000C4614968C1630362F0BD00008FFFFEFF88
:1041A000002C014000340140004001400044014027
:1041B00000480140F0B5056A026A22F480520262AA
:1041C0004268C3691A4C1C4E23400C6823F44073A8
:1041D00043EA042425F400538D6843EA0533154D62
:1041E000A84201D0B04208D1076A27F4804707628D
:1041F000CF6823F4004343EA0733A8420AD0B04211
:1042000008D00E4DA84205D00D4DA84202D00D4D4C
:10421000A84207D14D6922F4404242EA85128D69D5
:1042200042EA85124260C461496801640362F0BDDC
:10423000FF8FFFFE002C0140003401400040014090
:10424000004401400048014030B5056A026A22F48A
:10425000803202624268036D114C23400C681C439B
:1042600025F400330D8943EA05430E4DA8420BD0D7
:104270000D4DA84208D00D4DA84205D00C4DA842C6
:1042800002D00C4DA84204D14D6922F4803242EA9A
:1042900005224260046549688164036230BD000004
:1042A0008FFFFEFF002C0140003401400040014020
:1042B000004401400048014030B5046A026A22F41B
:1042C000801202624268036D114D24F400142B40E9
:1042D0000D6843EA05230D8944EA05540D4DA842B3
:1042E0000BD00D4DA84208D00C4DA84205D00C4D66
:1042F000A84202D00B4DA84204D14D6922F480227D
:1043000042EA8522426003654968C164046230BDA7
:10431000FF8FFFFE002C01400034014000400140AF
:10432000004401400048014010B5036A046A24F0CB
:10433000010404620E4CA0420BD00E4CA04208D0E7
:104340000D4CA04205D00D4CA04202D00C4CA04216
:1043500003D1046A24F004040462846924F0F004A4
:1043600044EA021423F00A020A438461026210BD87
:10437000002C014000340140004001400044014055
:104380000048014010B5036A046A24F01004046276
:104390000A4CA04202D00A4CA04203D1046A24F085
:1043A00040040462846923F0A00324F4704444EAC6
:1043B000023243EA01118261016210BD002C01400A
:1043C0000034014010B540F6C410FDF737F9FCF792
:1043D00049F9FCF711F90020FCF7E4F8BDE81040BA
:1043E0000020FCF7EBB800001D4810B50188042937
:1043F00034D3002101801B48FCF700FA1948FCF770
:1044000021FA1849A1F10800FCF796F81549164859
:104410000839FCF76FF8144913480C31FCF73AFAE5
:1044200011480C3090ED000ABCEEC00A10EE101AD4
:104430008AB20E490B685A6390ED010A0B68BCEE14
:10444000C00A10EE102A92B29A6390ED020A09682F
:10445000BCEEC00A10EE100A80B2C86310BD0000A6
:10446000120000201C000020EC070020FC000020AF
:1044700030B5416EB9B1026891689268C1F342618A
:104480000B4B520F9C5CE50003F10804A25CB5FBEA
:10449000F2F2A0F86A205A5C615CD200B2FBF1F142
:1044A000A0F8681030BD0121A0F86A10F8E70000FC
:1044B000224D000890F82810090706D501684A68BF
:1044C000836B22F400421A434A6090F82810C9070F
:1044D00006D001684A68C36A22F400321A434A606F
:1044E00090F82810890706D501684A68036B22F402
:1044F00080321A434A6090F82810490706D50168AF
:104500004A68436B22F480221A434A6090F82810CC
:10451000C90606D501688A68C36B22F480521A4323
:104520008A6090F82810890606D501688A68036CAD
:1045300022F400521A438A6090F82810490611D5D7
:1045400001684A68436C22F480121A434A60416C45
:10455000B1F5801F06D101684A68836C22F4C0025D
:104560001A434A6090F82810090606D501684A687F
:10457000C06C22F4002202434A6070472DE9F843E0
:1045800000260446C0F89060FDF78AF9804620684E
:1045900000684FF0200500076FF07E4713D54346B3
:1045A000002229042046009700F0A4FA58B121689F
:1045B00051E8000F20F0800041E80002002AF6D107
:1045C000C4F8885021E020680068400722D543469F
:1045D00000224FF480012046009700F08BFAC8B10A
:1045E000216851E8000F20F4907041E80002002A91
:1045F000F6D12068083050E8001F21F0010140E8A2
:104600000012002AF5D1C4F88C5084F8846003208D
:10461000BDE8F883C4F88850C4F88C5044F86C6F37
:10462000666026760020F3E710B5806AFEF724FE68
:1046300010BD70B5846AD4F88800D4F88C50216815
:104640008968090604D5212802D1204600F0ACF87B
:1046500020688068400604D5222D02D1204600F053
:1046600079F8D4F8900040F01000C4F8900020468B
:10467000FEF702FE70BD70B50146806A0A681268D6
:104680004FF0000392062DD4A0F85E30046854E881
:10469000002F22F4807244E80025002DF6D1026834
:1046A000083252E8004F24F0010442E80045002D92
:1046B000F5D10268083252E8004F24F0400442E885
:1046C0000045002DF5D12022C0F88C20C26E012AB1
:1046D00008D1046854E8002F22F0100244E80025B5
:1046E000002DF6D10367C26E012A02D0FFF722F82F
:1046F00070BDA0F85E3009684968B0F85C2089B2E6
:104700008A4201D9A0F85E10B0F85E10511A89B241
:10471000FEF738FD70BD10B50246806A01210167C1
:10472000C16E012902D0FFF706F810BDB0F85C1089
:104730004B08A0F85E301268526892B2914201D3E1
:10474000A0F85E20B0F85E20891A89B2FEF71AFD43
:1047500010BD000010B5026852E8001F21F49071EE
:1047600042E80013002BF6D10E4B0268083252E8E3
:10477000001F194042E80014002CF6D1C16E012937
:1047800008D1016851E8002F22F0100241E800230F
:10479000002BF6D12021C0F88C100021C1664167A2
:1047A00010BD0000FEFFFFEF026852E8001F21F07D
:1047B000C00142E80013002BF6D10168083151E82E
:1047C000002F22F4000241E80023002BF5D1202124
:1047D000C0F88810704700002DE9F04104460168D8
:1047E00080682269E3691043626900251A43104317
:1047F000DFF82CC20A688B4B1A4002430A6020681B
:104800004168E26821F44051114341602168A06988
:10481000614501D0226A10438A68834B1A400243E3
:104820008A602068C16A626A21F00F011143C16287
:104830007E4923687E488B420DD1D0F8880010F065
:10484000030006D0012855D0022842D003283FD1CA
:1048500052E001203DE077498B420BD1D0F888002F
:1048600010F00C0035D0042833D0082840D00C2894
:104870002ED141E070498B420BD1D0F8880010F066
:10488000300026D0102835D0202831D030281FD134
:1048900032E06A498B420BD1D0F8880010F0C0009A
:1048A00017D0402826D0802822D0C02810D123E05D
:1048B00063450DD1D0F8880010F4406009D0B0F500
:1048C000806F17D0B0F5006F12D0B0F5406F13D0E5
:1048D00010205B495B4F00264FF4004263453BD1FB
:1048E00060B1022813D004280BD0082872D10DE043
:1048F0000220EEE70420ECE70820EAE7FDF700FBE2
:1049000001E0FDF721FB010001D17CE01146606A66
:1049100037F810206768B1FBF2F007EB47038342DA
:1049200070D8B0EB073F6DD8002308461946FBF757
:1049300071FC090241EA1061020278081018714105
:104940003A460023FBF766FC3F4AA0F540719142CE
:1049500058D82168C86056E0E3694FF6EF78934273
:104960002CD109284ED2DFE800F00508114D0D4D7D
:104970004D4D1000FDF7C4FA01E0FDF7D3FA010038
:1049800004D140E0FDF7E0FAF9E71146606A37F834
:104990001000B1FBF0F04100606801EB5001B1FB89
:1049A000F0F0A0F1100141452CD84FF6F071014014
:1049B000C0F3420001432068C16024E0092821D2ED
:1049C000DFE800F0050912200E2020201100FDF77D
:1049D00097FA02E016E0FDF7A5FA010004D112E013
:1049E000FDF7B2FAF9E71146606A37F81000B1FB3B
:1049F000F0F1606801EB5001B1FBF0F0A0F11001A3
:104A000041450AD901250120A4F86A0024F8680F5D
:104A10002846E6602661BDE8F08180B299E7000093
:104A200000800040F369FFCFFFF4FF110038014020
:104A3000001002400044004000480040004C00408C
:104A40000024F4000A4D0008FFFC0F0070B58165DA
:104A5000A0F85C2000210446C0F890102220C4F881
:104A60008C00D4F88000F0B11F4BC362D4F88030C2
:104A70001E481863D4F880301D485863D4F880006D
:104A800013468163A56D21682A462431D4F880003D
:104A9000FCF78EFD38B11020C4F890002020C4F837
:104AA0008C00012070BD206940B1216851E8000FE1
:104AB00040F4807041E80002002AF6D120680830F6
:104AC00050E8001F41F0010140E80012002AF5D132
:104AD0002068083050E8001F41F0400140E8001213
:104AE000002AF5D1002070BD77460008174700085E
:104AF000334600082DE9F047994617460D4604460F
:104B00004FF00008089E33E0701C31D0FCF7C8FE5F
:104B1000A0EB0900B04218D8BEB12068016849076F
:104B200026D5802D24D0402D22D0C169C943090744
:104B30000DD4082505622046FFF70CFEC4F89050FE
:104B400084F884800120BDE8F0870320FBE7C0697A
:104B5000C04300050CD421684FF400600862204671
:104B6000FFF7F8FD2020C4F8900084F88480ECE77B
:104B70002068C06935EA000004D00020B842C3D0E4
:104B80000020E0E70120F9E70148FEF795BB0000AF
:104B900094010020FEE70907090E002804DB00F15C
:104BA000E02080F80014704700F00F0000F1E020D2
:104BB00080F8141D704710B52DED028BF0EE408A81
:104BC00018EE900AB0EE608A20F00040C0F1FF407D
:104BD000C00F07D118EE100A20F00040C0F1FF40CE
:104BE000C00F2BD018EE101A18EE900AFBF774FBCA
:104BF00000EE100A10EE100A6FEAD05010F0FF0F0E
:104C000004BFBDEC028B10BD18EE900A00F000410D
:104C100010EE100A00F00040814204BFBDEC028B90
:104C200010BD18EE101A10EE100ABDEC028B61F3E5
:104C30001E0000EE900A30EE600A10BD18EE900AD9
:104C40004FF07F41B1EB400F1CBF18EE100A5FEA36
:104C50004000C7D1012000F03BF8BDEC028BBDE85D
:104C6000104000F01DB810B52DED028BB1EEC08ADA
:104C700018EE100A20F00040C0F1FF40C00F0AD02B
:104C800010EE100A20F00040C0F1FF40C00F04BF3A
:104C9000012000F01DF8B0EE480ABDEC028B10BDFB
:104CA000DFED020A80EEA00A70470000000000005D
:104CB00002E008C8121F08C1002AFAD170477047E5
:104CC000002001E001C1121F002AFBD17047000043
:104CD000014908607047000028000020FCF7EEFD45
:104CE000FFF783F8FEF724FEFEF7FCFDFEF750FF0A
:104CF000FEF780FEFEF7A6FEFEF726FFFEF7AAFDF2
:104D0000FFF760FBFFF770FBFCE701000200040007
:104D1000060008000A000C0010002000400080007F
:104D20000001010101030701000008040204080159
:104D3000010100000000000000000102030406075A
:104D40000809000000000102030400000000000048
:104D5000920E493CB10AC93C2BC3163D2EFB483D7F
:104D6000752B7B3D04A9963D80B6AF3D36BDC83D51
:104D70002FBCE13D73B2FA3D87CF093E8340163E1A
:104D8000B5AB223EA2102F3ECF6E3B3EC2C5473E82
:104D90000115543E135C603E7F9A6C3ECCCF783E4A
:104DA000C07D823E938E883E229A8E3E32A0943EF3
:104DB00086A09A3EE59AA03E128FA63ED47CAC3ED9
:104DC000EF63B23E2A44B83E491DBE3E15EFC33ED6
:104DD00053B9C93ECA7BCF3E4136D53E80E8DA3E64
:104DE0004F92E03E7533E63EBBCBEB3EEA5AF13ED6
:104DF000CBE0F63E275DFC3EE4E7003F3D9C033FF1
:104E0000824B063F9BF5083F6B9A0B3FDA390E3F0A
:104E1000CDD3103F2A68133FD9F6153FC07F183F06
:104E2000C6021B3FD17F1D3FCBF61F3F9967223F34
:104E300025D2243F5636273F1594293F4AEB2B3F76
:104E4000DE3B2E3FBB85303FC9C8323FF304353FC0
:104E5000233A373F4268393F3B8F3B3FF9AE3D3FF6
:104E600067C73F3F70D8413F01E2433F03E4453FFE
:104E700065DE473F12D1493FF8BB4B3F029F4D3F94
:104E8000207A4F3F3D4D513F4918533F31DB543F4E
:104E9000E595563F5348583F6AF2593F1A945B3F95
:104EA000532D5D3F05BE5E3F2146603F97C5613F84
:104EB0005A3C633F59AA643F880F663FD86B673FEF
:104EC0003CBF683FA7096A3F0C4B6B3F5E836C3F5A
:104ED00093B26D3F9ED86E3F73F56F3F0809713FE7
:104EE0005213723F4714733FDD0B743F0BFA743F4C
:104EF000C6DE753F07BA763FC58B773FF853783FDC
:104F00009812793F9DC7793F02737A3FBE147B3F69
:104F1000CDAC7B3F283B7C3FC9BF7C3FAC3A7D3F5B
:104F2000CCAB7D3F23137E3FB0707E3F6DC47E3F90
:104F3000580E7F3F6D4E7F3FAB847F3F0FB17F3F69
:104F400097D37F3F43EC7F3F11FB7F3F0000803FC3
:104F500011FB7F3F43EC7F3F97D37F3F0FB17F3FF4
:104F6000AB847F3F6D4E7F3F580E7F3F6DC47E3FC9
:104F7000B0707E3F23137E3FCCAB7D3FAC3A7D3F8C
:104F8000C9BF7C3F283B7C3FCDAC7B3FBE147B3F01
:104F900002737A3F9DC7793F9812793FF853783F63
:104FA000C58B773F07BA763FC6DE753F0BFA743F75
:104FB000DD0B743F4714733F5213723F0809713F72
:104FC00073F56F3F9ED86E3F93B26D3F5E836C3F2B
:104FD0000C4B6B3FA7096A3F3CBF683FD86B673FEC
:104FE000880F663F59AA643F5A3C633F97C5613FAB
:104FF0002146603F05BE5E3F532D5D3F1A945B3FE7
:105000006AF2593F5348583FE595563F31DB543FCC
:105010004918533F3D4D513F207A4F3F029F4D3F2E
:10502000F8BB4B3F12D1493F65DE473F03E4453FA4
:1050300001E2433F70D8413F67C73F3FF9AE3D3F74
:105040003B8F3B3F4268393F233A373FF304353FBC
:10505000C9C8323FBB85303FDE3B2E3F4AEB2B3F7A
:105060001594293F5636273F25D2243F9967223F82
:10507000CBF61F3FD17F1D3FC6021B3FC07F183FAD
:10508000D9F6153F2A68133FCDD3103FDA390E3FCA
:105090006B9A0B3F9BF5083F824B063F3D9C033FBD
:1050A000E4E7003F275DFC3ECBE0F63EEA5AF13EE6
:1050B000BBCBEB3E7533E63E4F92E03E80E8DA3EF6
:1050C0004136D53ECA7BCF3E53B9C93E15EFC33EEC
:1050D000491DBE3E2A44B83EEF63B23ED47CAC3E8E
:1050E000128FA63EE59AA03E86A09A3E32A0943E3C
:1050F000229A8E3E938E883EC07D823ECCCF783EF3
:105100007F9A6C3E135C603E0115543EC2C5473E1B
:10511000CF6E3B3EA2102F3EB5AB223E8340163EE3
:1051200087CF093E73B2FA3D2FBCE13D36BDC83D85
:1051300080B6AF3D04A9963D752B7B3D2EFB483DC7
:105140002BC3163DB10AC93C920E493C0000000039
:10515000920E49BCB10AC9BC2BC316BD2EFB48BD7B
:10516000752B7BBD04A996BD80B6AFBD36BDC8BD4D
:105170002FBCE1BD73B2FABD87CF09BE834016BE16
:10518000B5AB22BEA2102FBECF6E3BBEC2C547BE7E
:10519000011554BE135C60BE7F9A6CBECCCF78BE46
:1051A000C07D82BE938E88BE229A8EBE32A094BEEF
:1051B00086A09ABEE59AA0BE128FA6BED47CACBED5
:1051C000EF63B2BE2A44B8BE491DBEBE15EFC3BED2
:1051D00053B9C9BECA7BCFBE4136D5BE80E8DABE60
:1051E0004F92E0BE7533E6BEBBCBEBBEEA5AF1BED2
:1051F000CBE0F6BE275DFCBEE4E700BF3D9C03BFED
:10520000824B06BF9BF508BF6B9A0BBFDA390EBF06
:10521000CDD310BF2A6813BFD9F615BFC07F18BF02
:10522000C6021BBFD17F1DBFCBF61FBF996722BF30
:1052300025D224BF563627BF159429BF4AEB2BBF72
:10524000DE3B2EBFBB8530BFC9C832BFF30435BFBC
:10525000233A37BF426839BF3B8F3BBFF9AE3DBFF2
:1052600067C73FBF70D841BF01E243BF03E445BFFA
:1052700065DE47BF12D149BFF8BB4BBF029F4DBF90
:10528000207A4FBF3D4D51BF491853BF31DB54BF4A
:10529000E59556BF534858BF6AF259BF1A945BBF91
:1052A000532D5DBF05BE5EBF214660BF97C561BF80
:1052B0005A3C63BF59AA64BF880F66BFD86B67BFEB
:1052C0003CBF68BFA7096ABF0C4B6BBF5E836CBF56
:1052D00093B26DBF9ED86EBF73F56FBF080971BFE3
:1052E000521372BF471473BFDD0B74BF0BFA74BF48
:1052F000C6DE75BF07BA76BFC58B77BFF85378BFD8
:10530000981279BF9DC779BF02737ABFBE147BBF65
:10531000CDAC7BBF283B7CBFC9BF7CBFAC3A7DBF57
:10532000CCAB7DBF23137EBFB0707EBF6DC47EBF8C
:10533000580E7FBF6D4E7FBFAB847FBF0FB17FBF65
:1053400097D37FBF43EC7FBF11FB7FBF000080BFBF
:1053500011FB7FBF43EC7FBF97D37FBF0FB17FBFF0
:10536000AB847FBF6D4E7FBF580E7FBF6DC47EBFC5
:10537000B0707EBF23137EBFCCAB7DBFAC3A7DBF88
:10538000C9BF7CBF283B7CBFCDAC7BBFBE147BBFFD
:1053900002737ABF9DC779BF981279BFF85378BF5F
:1053A000C58B77BF07BA76BFC6DE75BF0BFA74BF71
:1053B000DD0B74BF471473BF521372BF080971BF6E
:1053C00073F56FBF9ED86EBF93B26DBF5E836CBF27
:1053D0000C4B6BBFA7096ABF3CBF68BFD86B67BFE8
:1053E000880F66BF59AA64BF5A3C63BF97C561BFA7
:1053F000214660BF05BE5EBF532D5DBF1A945BBFE3
:105400006AF259BF534858BFE59556BF31DB54BFC8
:10541000491853BF3D4D51BF207A4FBF029F4DBF2A
:10542000F8BB4BBF12D149BF65DE47BF03E445BFA0
:1054300001E243BF70D841BF67C73FBFF9AE3DBF70
:105440003B8F3BBF426839BF233A37BFF30435BFB8
:10545000C9C832BFBB8530BFDE3B2EBF4AEB2BBF76
:10546000159429BF563627BF25D224BF996722BF7E
:10547000CBF61FBFD17F1DBFC6021BBFC07F18BFA9
:10548000D9F615BF2A6813BFCDD310BFDA390EBFC6
:105490006B9A0BBF9BF508BF824B06BF3D9C03BFB9
:1054A000E4E700BF275DFCBECBE0F6BEEA5AF1BEE2
:1054B000BBCBEBBE7533E6BE4F92E0BE80E8DABEF2
:1054C0004136D5BECA7BCFBE53B9C9BE15EFC3BEE8
:1054D000491DBEBE2A44B8BEEF63B2BED47CACBE8A
:1054E000128FA6BEE59AA0BE86A09ABE32A094BE38
:1054F000229A8EBE938E88BEC07D82BECCCF78BEEF
:105500007F9A6CBE135C60BE011554BEC2C547BE17
:10551000CF6E3BBEA2102FBEB5AB22BE834016BEDF
:1055200087CF09BE73B2FABD2FBCE1BD36BDC8BD81
:1055300080B6AFBD04A996BD752B7BBD2EFB48BDC3
:105540002BC316BDB10AC9BC920E49BC0000008035
:1055500070550008000000202C000000B04C00082E
:105560009C5500082C000020DC0B0000C04C0008FB
:105570001000000001000000000000000024F40002
:10558000000000000000000000000000000080405B
:0C5590000000000000000000000000000F
:04000005080001D915
:00000001FF
