:020000040800F2
:10000000700B0020F1010008F32F0008DD2C000820
:10001000F12F00085D080008AD3E00080000000058
:10002000000000000000000000000000DD310008BA
:10003000CB09000800000000F52F0008DF310008A0
:100040000B0200080B0200080B0200080B0200085C
:100050000B0200080B0200080B0200080B0200084C
:100060000B0200080B0200080B02000861080008E0
:100070006D0800080B0200080B0200080B020008C4
:100080000B020008000000000B0200080B02000831
:100090000B0200080B0200080B0200080B0200080C
:1000A0005D320008813200087532000869320008AC
:1000B0000B0200080B0200080B0200080B020008EC
:1000C0000B0200080B0200080B0200080B020008DC
:1000D0000B0200080B0200080B020008A13E0008FA
:1000E0000B0200080B0200080B0200080B020008BC
:1000F0000B0200080B0200080B02000800000000C1
:10010000000000000B020008000000000B020008C5
:100110000B020008000000008D3200080B020008EE
:100120000B0200080B0200080B0200080B0200087B
:100130000B02000800000000000000000B02000895
:100140000B0200080B020008000000000000000085
:10015000000000000000000000000000000000009F
:100160000000000000000000000000000B0200087A
:100170000B0200080000000000000000000000006A
:10018000000000000B02000800000000000000005A
:10019000000000000000000000000000000000005F
:1001A00000000000000000000B0200080B02000825
:1001B0000B0200080B0200080B0200080000000000
:1001C000000000000B02000800000000000000001A
:1001D0000B0200080B020008DFF810D000F05EFAF6
:1001E00000480047B5470008AFF30080700B0020BF
:1001F0000648804706480047FEE7FEE7FEE7FEE7C1
:10020000FEE7FEE7FEE7FEE7FEE7FEE74D32000809
:10021000D90100082DE9F05F0546002092469B4673
:1002200088460646814640241BE02846414647460C
:10023000224600F06AF853465A46C01A914110D33C
:1002400011461846224600F051F82D1A67EB0108B6
:100250004F4622460120002100F048F817EB000924
:100260004E41201EA4F10104DFDC484631462A46F7
:100270004346BDE8F09FD2B201E000F8012B491ED1
:10028000FBD270470022F6E710B513460A46044633
:100290001946FFF7F0FF204610BD00F0004230F095
:1002A00000400AD0C10D01F56071C0F3160042EAAA
:1002B0000151C208400711437047002001467047B2
:1002C00030B50B46014600202022012409E021FA26
:1002D00002F59D4205D303FA02F5491B04FA02F523
:1002E0002844151EA2F10102F1DC30BD202A04DBF6
:1002F000203A00FA02F1002070479140C2F1200339
:1003000020FA03F3194390407047202A04DB203A77
:1003100021FA02F00021704721FA02F3D040C2F125
:10032000200291400843194670472DE9FE4F804650
:1003300081EA0300C00F0C46009021F0004123F039
:100340000045B8EB0200A94105D24046214690463F
:100350001C460B46024623F00040104347D0270DB1
:10036000C7F30A00C3F30A510290401A01904028D3
:100370006BDAC3F3130040F4801B0098924620B15F
:100380000023D2EB030A63EB0B0B01985946C0F133
:1003900040025046FFF7AAFF06460D465046594612
:1003A000019A00F08DF910EB08006141002487EA02
:1003B000115284EAE7731A4340D0009A62B3019A5B
:1003C000012A4FEA075215DC001B61EB02014FF0D6
:1003D000004202EA0752CDE90042001C41F58011BB
:1003E00032462B4600F08DF903B0BDE8F08F404651
:1003F0002146F9E7001B61EB0201001C41F5801367
:1004000000185B412018A2F5001747EB030140EAF2
:10041000D570B6196D4111E06D084FEA360645EA10
:10042000C0754FEA0752001B61EB0201001C41F549
:10043000801149084FEA30000019514132462B46DD
:1004400003B0BDE8F04F00F04DB900980122400024
:100450000023D0EB020263EBE073009821464FEAE1
:10046000E074B8EB000061EB0401E9E783F00043BE
:100470005BE781F0004158E72DE9FE4F81EA030474
:1004800004F0004421F0004100944FF0000B23F0F1
:10049000004350EA01045ED052EA03045BD0C3F388
:1004A0000A54C1F30A552C44A4F2F3340194A0FB7E
:1004B0000254C1F3130141F48011C3F3130343F455
:1004C000801301FB024400FB034E840A970A44EAAE
:1004D000815447EA8357A4FB076802958D0A05FB00
:1004E00007854FEA932C04FB0C542705029D4FEA25
:1004F000065847EA1637B5EB08056EEB070C870E72
:10050000920E47EA811742EA8312A7FB0201B6EB7B
:100510000B0164EB00042B0D43EA0C335E1844EB33
:100520001C50DA465146E7FB0201C5F313044FEABB
:100530000B3343EA14534FEA0432019C43EA0603A7
:10054000A4F10C040294009CCDE900B400F0D9F8A9
:1005500003B0BDE8F08F00200146F9E72DE9F04D2A
:1005600081EA030404F0004B21F0004514464FF0EB
:10057000000A23F0004150EA050220D054EA0102AB
:100580001DD0C5F30A570246C5F31303C1F3130088
:10059000C1F30A5640F4801543F48013A7EB060814
:1005A000101BD64608F2FD3873EB050002D308F1A4
:1005B000010801E092185B41B8F1000F03DA002056
:1005C0000146BDE8F08D00204FF4801106468446B8
:1005D0000EE0171B73EB050705D3121B63EB050336
:1005E00006434CEA010C49084FEA300092185B417F
:1005F00050EA0107EDD152EA030012D082EA04006A
:1006000083EA0501084305D0101BAB4106D2012245
:10061000002306E000224FF0004302E06FF00102E9
:1006200053101AEB06004CEB085110EB0A0041EB9B
:100630000B01BDE8F04D00F055B8C1F30A52C1F30B
:10064000130140F2FF3341F480119A4202DA002094
:100650000146704740F233439A42A2F2334202DC31
:100660005242FFF752BEFFF741BE000030B5041EF4
:1006700071F1000404DB4FF00044404264EB0101DF
:10068000141E73F1000405DB1C464FF00043524278
:1006900063EB0403994208BF904230BD064C074DFE
:1006A00006E0E06840F0010394E807009847103442
:1006B000AC42F6D3FFF794FD88480008A84800082C
:1006C000202A06DBCB17203A41FA02F043EAE07316
:1006D00006E041FA02F3D040C2F120029140084303
:1006E0001946704710B5141E73F1000408DA401C57
:1006F00041F1000192185B411A4301D120F0010041
:1007000010BD2DE9F04D92469B4611B1B1FA81F230
:1007100002E0B0FA80F220329046FFF7E7FD04468F
:100720000F4640EA0A0041EA0B0153465A46084385
:1007300013D0114653EA010019D0C8F140025046C7
:10074000FFF7E3FD05460E46504659464246FFF781
:10075000CDFD084305D0012004E020463946BDE820
:10076000F08D0020054346EAE0762C4337430A9893
:100770006305E40AA0EB08000022FD0A44EA47549E
:100780000A3002D500200146E9E701051019694148
:10079000DDE9084500196941BDE8F04DA2E7000018
:1007A00010B54FF48061034800F0B8FB012800D079
:1007B000002010BD000800481021014800F0B3BB24
:1007C00000080048012801D0012200E00022102189
:1007D000014800F0B0BB000000080048012801D02B
:1007E000012200E000224021014800F0A4BB0000EB
:1007F0000008004808B558B151B14AB164230093CC
:1008000013460A460146034801F0CEF9002800D0FD
:10081000012008BD1800002010B5044801F030FC8C
:10082000BDE81040024801F02BBC0000C8000020C9
:100830007C00002010B580220549064801F0F2FE38
:1008400005480068016821F00401016010BD000046
:10085000E802002014010020A8010020FEE70000AB
:10086000014800F029B90000A8010020014800F06B
:1008700023B900000802002010B501680E4CCAB26E
:100880001423083AA14203D2B2FBF3F20B4904E06D
:10089000B2FBF3F209492031921D436C02F01F02B2
:1008A00023F003031944816404498031C1640121A8
:1008B0009140016510BD000008040240000802409C
:1008C0000179084A01F07F0102EB81024265054A85
:1008D0004432491E826501F01F0201219140C16529
:1008E00070470000FC08024030B5D0E91345656050
:1008F000446D14B1D0E91645656090F8444004F0A9
:100900001F050124AC40056C6C600468636083685B
:10091000102B036803D099600068C26030BD9A60F4
:100920000068C16030BD000000EE100ADFED050A6E
:10093000B8EE400A20EE200ADFED030A20EE200A7E
:10094000704700000000B443000080387CB50024EC
:10095000009483208DF800004FF0904501948DF8AD
:10096000014022461021284600F0E5FA022201A9A2
:100970006846FFF73FFFB0B901221021284600F07A
:10098000DAFA84208DF800009DF805608DF80140AA
:1009900000221021284600F0CEFA022201A9684662
:1009A000FFF728FF30B101221021284600F0C3FADA
:1009B00000207CBD01221021284600F0BCFA9DF8E1
:1009C0000500B10141EA90007CBD704772B6FEE7B8
:1009D00010B5002140B190F825300122022B05D03E
:1009E0000421C163012124E0012010BD03681C68BB
:1009F00024F001041C6003681C6824F00E041C60D1
:100A0000836C1C6824F480741C6090F84430046C7F
:100A100003F01F0302FA03F36360D0E913345C6050
:100A2000436D33B11C6824F480741C60D0E9163423
:100A30005C6080F82520002280F82420084610BD44
:100A400070B590F82520002401212346022A07D002
:100A50000422C26380F8251080F82430012429E0A4
:100A60000268156825F0010515600268156825F013
:100A70000E051560826C156825F48075156090F878
:100A80004420056C02F01F0201FA02F26A60D0E90C
:100A900013255560426D32B1156825F480751560D7
:100AA000D0E91625556080F8251080F82430816B38
:100AB00001B18847204670BDF0B4016C0C68016834
:100AC0000D6890F8442002F01F06042202FA06F393
:100AD000234211D06B070FD50B689B0603D40B681C
:100AE00023F004030B6090F8441001F01F018A40CA
:100AF000016C4A60016B1DE0022303FA06F72742EE
:100B00004FF0000C4FF0010218D0AF0716D50C685B
:100B1000A40605D40C6824F00A040C6080F8252093
:100B200090F8441001F01F018B40016C4B6080F87D
:100B300024C0C16A00291AD0F0BC08470823B3407A
:100B4000234214D02B0712D50B6823F00E030B6041
:100B500090F84410036C01F01F0102FA01F1596092
:100B6000C26380F8252080F824C0416BE2E7F0BC26
:100B70007047000070B504000CD02C4A2168142086
:100B8000914209D22A4A0A44B2FBF0F08000606424
:100B900028480AE0012070BD244A52420A44B2FBB0
:100BA000F0F080006064214808382064022084F856
:100BB00025000A6847F6F0708243D4E9020318431F
:100BC000D4E904352B431843A3691843E369184358
:100BD000236A1843104308602046FFF74DFEA068C3
:100BE0000025B0F5804F00D165602079A16C00F040
:100BF0007F000860D4E9130141606068401E03284B
:100C000008D82046FFF75CFE606D0560D4E9160148
:100C1000416002E06565A565E565E563012084F84E
:100C2000250084F82450002070BD00000804024014
:100C3000F8FFFDBF0000024070B5044690F82400A4
:100C4000002501280CD0012084F8240094F82560A8
:100C50000020012E06D084F824000225284670BD0D
:100C6000022070BD022684F82560E06320680668D3
:100C700026F0010606602046FFF736FE206B0028AE
:100C80002068016802D041F00E0106E021F0040165
:100C900001602068016841F00A010160A06C0168F0
:100CA000C90303D5016841F480710160606D18B11A
:100CB000016841F4807101602068016841F0010120
:100CC0000160CBE770B5044600F03AF90546601CB8
:100CD00002D004484068044400F032F9401BA042AE
:100CE000FAD370BD000000202DE9F04FDFF80C9220
:100CF000002301260325A9F1040B85B00F2709F174
:100D0000040AABF1040EF1E006FA03FC12EA0C024D
:100D10007ED00C7904F00304012C01D0022C20D1E8
:100D2000846800945C0005FA04F80494009C24EAAA
:100D300008040094D1F80C80049C08FA04F8009C84
:100D400048EA0408C0F80880446824EA0C0491F8D2
:100D500004C0CCF3001C0CFA03FC4CEA040CC0F8F1
:100D600004C00C79E443A40702D18C68012C0ED096
:100D7000C4684FEA430805FA08FC24EA0C04D1F8D9
:100D800008C00CFA08FC4CEA040CC0F80CC00C7942
:100D900004F00304022C16D1DC0800EB840CCDF81F
:100DA00008C0DCF820C05C074FEAD46807FA08F4F2
:100DB0002CEA040C0C6904FA08F444EA0C04DDF88B
:100DC00008C0CCF8204004684FEA430805FA08FC44
:100DD00024EA0C0491F804C00CF0030C0CFA08FC93
:100DE0004CEA040CC0F800C04C6814F4403F7CD0BE
:100DF000434CD4F860C04CF0010CC4F860C0246EC1
:100E000023F0030C04F0010400943E4C644400E021
:100E10006BE00294A4684FEA837C4FEA1C7807FADF
:100E200008FC24EA0C04B0F1904F06D0DFF8D8C0DB
:100E3000604505D14FF0010C20E04FF0000C1DE0A3
:100E4000DFF8C8C0604502D14FF0020C16E0DFF8B1
:100E5000C0C0604502D14FF0030C0FE0DFF8B4C012
:100E6000604502D14FF0040C08E0DFF8ACC06045EB
:100E700002D14FF0050C01E04FF0060C0CFA08FC13
:100E80004CEA040C029CC4F808C0D9F80040CC46D7
:100E9000D1F8048094435FEAC82800D51443CCF805
:100EA0000040DAF80040D446D1F8048094435FEA69
:100EB000882800D51443CCF80040DBF80040DC461D
:100EC000D1F8048094435FEA883800D51443CCF805
:100ED0000040DEF80040F446D1F8048094435FEA15
:100EE000C83800D51443CCF800405B1C0C6822467F
:100EF000DC407FF409AF05B0BDE8F08F0804014085
:100F000000100240000001400004004800080048B2
:100F1000000C004800100048001400480069084018
:100F200000D001207047426921EA02030A4043EAE7
:100F30000241816170470AB18161704781627047E7
:100F40000148806870470000000000200248816866
:100F500042681144816070470000002010B50024F1
:100F6000032000F073F80F2000F008F808B1012406
:100F700001E000F025F8204610BD000070B50E4ECF
:100F800005460024706898B14FF47A71B1FBF0F017
:100F90000A490968B1FBF0F000F03FFF40B9102D9D
:100FA00006D200222946501E00F030F8356000E0DD
:100FB0000124204670BD0000000000200C0000202D
:100FC0000A4882B0016E41F001010166016E01F034
:100FD00001010091816D41F080518165806D00F0CB
:100FE0008050009002B000F0A1B800000010024054
:100FF000002809DB00F01F02012191404009800018
:1010000000F1E020C0F8001170470000F0B40E4B72
:101010001B680C46C3F30223C3F10705042D00D956
:101020000425191D072901D2002300E0DB1E01263B
:1010300006FA05F1491E214099409E40761E164051
:101040003143F0BC02F044BF0CED00E0064900F073
:10105000070208684FF6FF03184040EA0220034ADF
:1010600010430860704700000CED00E00000FA0536
:101070002B492C4B0A6832214A432B4940B1B0F529
:10108000007F086829D020F4C06040F480602CE024
:101090000868C0F34120022804D051F8800F20F4E2
:1010A000807022E0D1F8800020F48070C1F88000C8
:1010B000086820F4C06040F400700860B2FBF3F0F0
:1010C000401C00E0401E4A69520501D50028F9D1B4
:1010D000486940050AD503207047C0F34120022823
:1010E00006D051F8800F40F48070086000207047EF
:1010F000D1F8800040F48070C1F88000086820F4C6
:10110000C06040F400700860B2FBF3F0401C00E0E7
:10111000401E4A695205DBD50028F9D1D8E7000006
:101120000C00002040420F0000700040024881681F
:1011300041F4804181607047007000402DE9F84320
:101140000446006800269D4D00035ED5A86D00276B
:10115000C00008D4A86D40F08050A865A86D012794
:1011600000F080500090DFF85892D9F8001041F458
:101170008071C9F80010FFF7E3FE804606E000BF6B
:10118000FFF7DEFEA0EB080002282BD8D9F80000FC
:10119000C005F5D5D5F8900010F4407014D0216C3E
:1011A000814211D0D5F89000D5F8901020F440700D
:1011B00041F48031C5F89010D5F8901021F48031B9
:1011C000C5F89010C5F89000C00711D0FFF7B8FE21
:1011D000804641F2883907E0FFF7B2FEA0EB080134
:1011E000494501D903260BE0D5F890008007F3D5D7
:1011F000D5F89000216C20F440700843C5F89000A9
:101200001FB1A86D20F08050A8652078C00707D0D6
:10121000D5F88800616820F003000843C5F888000D
:101220002078800707D5D5F88800A16820F00C0049
:101230000843C5F888002078400707D5D5F888000E
:10124000E16820F030000843C5F8880020780007E6
:1012500007D5D5F88800216920F0C0000843C5F8FB
:1012600088002078800607D5D5F88800616920F4C9
:1012700040600843C5F888002078400607D5D5F8B7
:101280008800A16920F440500843C5F88800207800
:10129000000607D5D5F88800E16920F440400843EE
:1012A000C5F888002088C00507D5D5F88800216AD0
:1012B00020F440300843C5F888002088800507D511
:1012C000D5F88800616A20F440200843C5F88800FA
:1012D000208840050FD5D5F88800A16A20F4401079
:1012E0000843C5F88800A06AB0F5801F03D1E868FC
:1012F00040F48010E860208800050FD5D5F88800FC
:10130000E16A20F440000843C5F88800E06AB0F5BF
:10131000800F03D1E86840F48010E8602088C004A2
:101320000FD5D5F88800216B20F040700843C5F830
:101330008800206BB0F1807F03D1E86840F4801012
:10134000E86020884FF0006180040ED5D5F8880051
:10135000626B20F040601043C5F88800606B8842E3
:1013600003D1E86840F48010E860208840040ED57E
:10137000D5F88800A26B20F040601043C5F88800C3
:10138000A06B884203D1E86840F48010E8602088B0
:1013900000040FD5D5F88800E16B20F040500843D9
:1013A000C5F88800E06BB0F1805F03D1E86840F4D5
:1013B0008030E8603046BDE8F8830000001002404D
:1013C000007000402DE9F0470E4605004FF0000781
:1013D00025D0DFF8AC81D8F8000000F00F00B04253
:1013E0000CD2D8F8001021F00F013143C8F80010DA
:1013F000D8F8000000F00F00B04210D12968614C0D
:10140000C80741F2883A5AD06868DFF87C9103280F
:1014100008D0022820682DD0400500282CDB0120B0
:10142000BDE8F08720688001F9D5E06800F003028C
:10143000E068C0F30310401C032A19D0534A00BFD0
:10144000B2FBF0F0E268C2F306225043E268C2F356
:101450004162521C5200B0FBF2F0484517D9A06817
:1014600010F0F00F0CD0880711D5A86840B10EE03D
:10147000474AE5E78003D0E700F0B6F8484506D9CB
:10148000A06820F0F00040F08000A0608027A068F5
:10149000696820F003000843A060FFF751FD814612
:1014A00006E000BFFFF74CFDA0EB090151453AD81B
:1014B000A068696800F00C00B0EB810FF2D12868D9
:1014C000810714D5400703D5A06840F4E060A06010
:1014D0002878000705D5A06820F4605040F4E0604B
:1014E000A060A068A96820F0F000084304E0802F05
:1014F00003D1A06820F0F000A060D8F800104046AA
:1015000001F00F01B14216D9016821F00F013143FA
:101510000160FFF715FD074607E000BFFFF710FD6C
:10152000C11B514501D903207AE7D8F8000000F02B
:101530000F00B042F2D12878400705D5A068E968CD
:1015400020F4E0600843A0602878000706D5A06872
:10155000296920F4605040EAC100A06000F044F81E
:10156000A1680C4AC1F30311515C01F01F01C8408E
:101570000949086009480068BDE8F047FFF7FEBC6C
:10158000002002400010024000B4C4040024F40013
:1015900000127A00704800080C00002000000020B3
:1015A0000548064900688968054AC1F30221515C73
:1015B00001F01F01C84070470C00002000100240DD
:1015C000804800080548064900688968054AC1F353
:1015D000C221515C01F01F01C84070470C0000207F
:1015E0000010024080480008184910B58868C0F310
:1015F00081021748012A0BD08A684310C2F3810286
:10160000022A06D08A68C2F38102032A03D000208E
:1016100010BD184610BDCA6802F00304CA68C2F3C0
:101620000312521C032C02D0B0FBF2F001E0B3FB1A
:10163000F2F0CA68C968C2F306225043C1F341619F
:10164000491C4900B0FBF1F010BD00000010024041
:101650000024F4002DE9F84304007AD02078F84DF6
:10166000C00747D0A868E96800F00C0001F003014A
:101670000C2802D0082817D001E0032914D0606894
:10168000B0F5803F17D0B0F5A02F286817D020F410
:1016900080302860286820F4802028606068E0B1ED
:1016A000FFF74EFC064614E02868800322D56068E8
:1016B0000028D2D01EE0286840F48030EDE740F4E6
:1016C00080202860F7E700BFFFF73AFC801B642802
:1016D00070D828688003F7D50CE0FFF731FC064688
:1016E00005E000BFFFF72CFC801B6428F0D82868B9
:1016F0008003F7D4207880074CD5A868E96800F00B
:101700000C0001F003010C2802D004280DD001E0E8
:1017100002290AD0E068002828682BD040F48070A5
:101720002860FFF70DFC064619E02868400502D541
:10173000E068002891D06868217C20F0FE4040EAF3
:1017400001606860BF480068FFF718FC002800D1FE
:1017500020E072E1FFF7F4FB801B0228B8D828686C
:101760004005F7D56868217C20F0FE4040EA016022
:1017700068600FE020F480702860FFF7E1FB064608
:1017800005E000BFFFF7DCFB801B0228A0D828681B
:101790004005F7D42078000729D560690028D5F8DE
:1017A000940013D040F00100C5F89400FFF7C8FB87
:1017B000064606E090E000BFFFF7C2FB801B022850
:1017C00086D8D5F894008007F6D510E020F0010007
:1017D000C5F89400FFF7B4FB064604E0FFF7B0FB42
:1017E000801B022878D8D5F894008007F6D420789A
:1017F000400761D5A86D0026C00008D4A86D40F050
:101800008050A865A86D012600F0805000908E4899
:101810000168C90511D40168804641F480710160F6
:10182000FFF78EFB074604E0FFF78AFBC01B022888
:1018300052D8D8F80000C005F6D5A068012815D008
:101840000528D5F8900016D020F00100C5F89000CA
:10185000D5F8900020F00400C5F89000A06841F28F
:101860008838B8B1FFF76CFB07460EE0D5F890005A
:1018700040F00100F0E740F00400C5F89000F5E703
:10188000FFF75EFBC11B414526D8D5F890008007C5
:10189000F6D50CE0FFF754FB074604E0FFF750FBDA
:1018A000C11B414518D8D5F890008007F6D41EB169
:1018B000A86D20F08050A8652078800629D5A06901
:1018C0000028D5F8980013D040F00100C5F8980022
:1018D000FFF736FB064606E075E000BFFFF730FB7A
:1018E000801B02286FD8D5F898008007F6D510E045
:1018F00020F00100C5F89800FFF722FB064604E03F
:10190000FFF71EFB801B02285DD8D5F898008007E2
:10191000F6D4E069F0B3A968C1F3810103295DD071
:101920000228286820F08070286003D0FFF708FBA9
:1019300004464BE0FFF704FB064604E0FFF700FB1C
:10194000801B02283FD828688001F7D4F4E90801F9
:101950006FF00F0202EB01110843218A520449087B
:1019600002EB4151A26841EA02210843217D4FF078
:101970007E42490802EB41610843217B40EAC16095
:10198000E968324A11400843E860286840F08070F6
:10199000286000E05EE0E86840F08070E860FFF7F3
:1019A000CFFA044605E000BFFFF7CAFA001B022881
:1019B00009D828688001F7D54CE000BFFFF7C0FACE
:1019C000001B022802D90320BDE8F88328688001A3
:1019D000F4D4E8681E490840E8603BE00128F3D0F1
:1019E000E868226A00F00301914226D1616A00F0A2
:1019F000F0020901103991421FD1A26A00F4FE41A0
:101A0000B1EB022F19D194F82C2000F07841B1EB02
:101A1000C26F12D1218E00F4C00249084905A1F518
:101A20000011914209D194F8341000F0C0604908C7
:101A30004906A1F1007181420CD00120C4E70000E9
:101A40000010024000000020007000400C809F0148
:101A5000FCFFEEFE0020B7E770B5040009D0606A15
:101A6000002540B125616561A56294F85D0040B133
:101A70000CE0012070BD6068B0F5827FF4D0E561B4
:101A8000F2E784F85C50204600F05CF8022084F80D
:101A90005D002068016821F040010160E1684FF4B9
:101AA000E062914201D9002001E04FF48050B1F58D
:101AB000706F02D0914200D0A562A188228901F402
:101AC000827102F404421143227C02F002021143AB
:101AD000227D02F001021143228B02F400721143B5
:101AE000227F02F03802114394F8202002F0800295
:101AF0001143228D02F40052114322681160A16942
:101B0000042202EA114194F8242000F4805002F0EB
:101B10001002114394F8342002F008021143A28904
:101B200002F4706211430143206841602068C1697A
:101B300021F40061C1612566012084F85D00002068
:101B400070BD000010B586B0044614216846FEF74B
:101B500099FB1249206888421DD11148016E41F459
:101B600080510166016E01F480510591C16C41F014
:101B70000201C164C06C694600F002000590382083
:101B80000090022001900020029003900520049014
:101B90000448FFF7A9F806B010BD0000003001406E
:101BA00000100240000400482DE9FF5F1D469346E7
:101BB00004464FF001090E9EFFF7C2F9074694F85C
:101BC0005D006168012806D0B1F5827F39D1A16836
:101BD000B1BB042835D1019800287CD0BBF1000F9F
:101BE000FBD0002DF9D094F85C00012829D04FF0EB
:101BF000010A84F85CA094F85D00042802D0052056
:101C000084F85D004FF00008C4F86080C4F840B06C
:101C1000A4F84650A4F844500199A163E587A5872C
:101C2000C4F84C80C4F85080E0684FF4E06188420A
:101C300001D8012D09D92068426822F4805208E0B9
:101C4000FFE7022004B0BDE8F09F2068426842F43C
:101C50008052426020680268520603D4026842F053
:101C600040020260E0688842606846D908B1012DF0
:101C70003BD1A06B01882068C160A06B801CA06371
:101C8000E08F401EE08730E02068816889070FD52B
:101C9000E18F69B1B9F1010F0AD1A16B0988C16067
:101CA000A06B801CA063E08F401EE0874FF000090E
:101CB00020688168C90711D0B4F8461071B1C068B6
:101CC000216C0880206C801C2064B4F84600401E03
:101CD000A4F8460000E09EE04FF00109FFF730F95C
:101CE000C01BB04201D3701C74D1E08F0028CBD14F
:101CF000B4F846000028C7D175E008B1012D6BD1BA
:101D0000E08F0128A06B08D921680088C860A06B0B
:101D1000801CA063E08F801E07E0216800780873B4
:101D2000A06B401CA063E08F401EE08754E0206859
:101D3000816889071AD5E18FC1B1B9F1010F15D1B9
:101D4000E18F0129A16B07D90988C160A06B801CB4
:101D5000A063E08F801E06E009780173A06B401C31
:101D6000A063E08F401EE0874FF000092068816883
:101D7000C90728D0B4F8461029B3B4F84610012991
:101D800014D9C068216C0880206C801C2064B4F8D1
:101D90004600801EA4F84600B4F84600012810D87A
:101DA0002068416841F4805141600AE0007B216C69
:101DB0000870206C401C2064B4F84600401EA4F853
:101DC00046004FF00109FFF7BBF8C01BB04202D339
:101DD000701C01D012E08EB1E08F0028A7D1B4F8BA
:101DE00046000028A3D13A463146204601F003F9C7
:101DF00050B12020206684F85C800CE084F85DA05F
:101E000084F85C8003201DE784F85DA084F85C8082
:101E1000206E0028F7D0012014E710B5401EB0F165
:101E2000807F01D3012010BD4FF0E02460610F21BD
:101E3000601702F04DF80020A0610720206100200B
:101E400010BD70477047704730B590F83C20012AAC
:101E500042D0012280F83C20CA688B6822F440728C
:101E60001A434B6822F480621A430B6822F4006222
:101E70001A430B6922F480521A434B6922F4005230
:101E80001A430B6B22F480421A430B8B22F470220C
:101E900042EA0342CB6922F080521A430F4D036895
:101EA0000024AB4202D00E4DAB4210D10D8D22F476
:101EB000700242EA05520D6A22F080722A434D6A8E
:101EC00022F000722A43C96A22F000520A435A647F
:101ED00080F83C40002030BD022030BD002C014085
:101EE000003401407047704770470000F0B590F82B
:101EF0003C20012A3AD0012580F83C50022280F88B
:101F00003D2003685A689C68194E1A4FB34201D0AD
:101F1000BB4204D122F4700C4A6842EA0C02DFF89A
:101F200058C002EA0C02D1F800C04CEA020CC3F817
:101F300004C00268B2420DD0B2F1804F0AD00F4BFC
:101F40009A4207D00E4B9A4204D0BA4202D00D4BAF
:101F50009A4204D1896824F080031943916080F883
:101F60003D50002180F83C100846F0BD0220F0BD35
:101F7000002C0140003401408FFFFFFD00040040B1
:101F80000008004000400140704710B5040003D035
:101F900094F83D0010B107E0012010BD002084F846
:101FA0003C00204600F022F8022084F83D00211D6C
:101FB000206801F08BF9012084F8480084F83E0085
:101FC00084F83F0084F8400084F8410084F842001F
:101FD00084F8430084F8440084F8450084F84600FF
:101FE00084F8470084F83D00002010BD08B5214A60
:101FF00001682148914226D1016E41F400610166D9
:10200000006E002200F40060009011461820FEF7D8
:10201000FDFF1820FEF7ECFF002211461920FEF705
:10202000F5FF1920FEF7E4FF002211461A20FEF703
:10203000EDFF1A20FEF7DCFF002211461B20FEF701
:10204000E5FF1B2010E00D4A914211D1816D41F056
:1020500010018165806D002200F010000090114693
:102060003620FEF7D3FF3620BDE80840FEF7C0BF9C
:1020700008BD0000002C014000100240001000408C
:1020800090F83D10012901D001207047022180F80D
:102090003D100168CA6842F00102CA600068104938
:1020A00088420ED0B0F1804F0BD00E49884208D044
:1020B0000D49884205D00D49884202D00C4988421A
:1020C00007D181680B4A1140062906D0B1F5803F3F
:1020D00003D0016841F00101016000207047000059
:1020E000002C014000040040000800400034014082
:1020F000004001400700010070B5044690F83C0024
:102100000025012814D0012684F83C60022084F8C0
:102110003D0022689068364B184020F47F40906064
:10212000086870282ED010DC10F00F0F03D021E0CB
:102130004FF0020070BD4FEA2012072A1AD2DFE8E2
:1021400002F0525252524A3840002A4BC21A984268
:1021500049D009DCB0F5805F0DD0B0F5005F1CD030
:10216000B0F1101F06D13EE0102A3CD0202A3AD010
:10217000502A38D0012584F83D60002084F83C00C6
:10218000284670BDCB68D1E90121206801F0FAF83A
:102190002068816841F0770109E0CB68D1E901212D
:1021A000206801F0EFF82068816841F48041816087
:1021B000E1E7CA684968206801F098FA5021206870
:1021C00006E0CA684968206801F0BEFA602120680C
:1021D00001F0E2F8CFE7CA684968206801F086FAA2
:1021E00040212068F4E7226801461046F0E700002D
:1021F00088FFCEFF2000100070472DE9F041044613
:102200000068C66805694FF00007A90713D5B10734
:1022100011D5F91E016101202077206880698007AF
:10222000204602D0FFF7E8FF04E000F001F9204665
:1022300000F0C3F92777680716D5700714D5216811
:102240006FF004000861022020772068806910F494
:10225000407F204602D0FFF7CFFF04E000F0E8F80F
:10226000204600F0AAF92777280715D5300713D59F
:1022700021686FF008000861042020772068C06999
:102280008007204602D0FFF7B7FF04E000F0D0F847
:10229000204600F092F92777E80616D5F00614D507
:1022A00021686FF010000861082020772068C0695D
:1022B00010F4407F204602D0FFF79EFF04E000F0BC
:1022C000B7F8204600F079F92777E80708D0F0073B
:1022D00006D021686FF001000861204600F06EF919
:1022E000280601D4A80408D5300606D521686FF465
:1022F000025008612046FFF7A5FDE80508D5300625
:1023000006D521686FF4807008612046FFF799FDBB
:10231000680608D5700606D521686FF04000086190
:10232000204600F05FF9A80608D5B00606D521685A
:102330006FF0200008612046FFF785FDE80208D510
:10234000F00206D521686FF4801008612046FFF77F
:10235000CAFDA80208D5B00206D521686FF40010A6
:1023600008612046FFF7BEFD680208D5700206D559
:1023700021686FF4800008612046FFF7B5FD280250
:102380000AD5300208D521686FF4000008612046A4
:10239000BDE8F041FFF7F8BDBDE8F081F0B587B0CA
:1023A000044614216846FDF76DFF1E4920688842E7
:1023B00036D11D48C16C41F00201C164C16C01F00D
:1023C00002010591C16C41F00101C164C06C02259C
:1023D00000F0010005904FF4C04000900024CDE9CA
:1023E00001540626114FCDE9034669463846FEF7EB
:1023F0007BFCA8030090CDE901540420CDE9034003
:1024000069463846FEF770FC4FF4E0600090CDE975
:102410000154CDE9034669464FF09040FEF764FC55
:1024200007B0F0BD002C014000100240000400483D
:10243000704770B5044690F83C0000260D46012810
:102440000BD0012084F83C000C2A4AD007DC82B172
:10245000042A20D0082A06D131E0022070BD102ABB
:1024600053D0142A63D00126002084F83C00304663
:1024700070BD206800F09AFF2068816941F0080172
:1024800081612068816921F004018161206881698E
:102490002A69114311E0206800F0DAFF20688169A1
:1024A00041F4006181612068816921F4806181616A
:1024B000206881692A6941EA02218161D4E72068A4
:1024C00001F010F82068C16941F00801C16120687D
:1024D000C16921F00401C1612068C1692A69114301
:1024E00011E0206801F048F82068C16941F40061FA
:1024F000C1612068C16921F48061C1612068C1693E
:102500002A6941EA0221C161AEE7206801F07EF844
:102510002068016D41F0080101652068016D21F01E
:10252000040101652068016D2A69114311E02068EA
:1025300001F0A4F82068016D41F400610165206894
:10254000016D21F4806101652068016D2A6941EA0D
:102550000221016588E710B5040003D094F83D001E
:1025600010B107E0012010BD002084F83C00204697
:1025700000F022F8022084F83D00211D206800F0C0
:10258000A5FE012084F8480084F83E0084F83F004E
:1025900084F8400084F8410084F8420084F8430045
:1025A00084F8440084F8450084F8460084F8470025
:1025B00084F83D00002010BD704770470246074870
:1025C00000B5824201D100F073FE0548824203D17A
:1025D0005DF804EB00F060BE00BD0000C800002004
:1025E0007C000020704790F88410012918D0012148
:1025F00080F884102421C0F8881001680A680B68EC
:1026000023F001030B6022F00051002242660368B0
:1026100019602021C0F8881080F884201046704787
:102620000220704710B50446D0F88C00202801D055
:10263000022010BD61B15AB10120E0660020206780
:10264000204601F08FFB0028F3D1E16E012901D073
:10265000012010BD226810211162226852E8001F7B
:1026600041F0100142E80013002BF6D110BD00002C
:1026700010B50C4600680F49884219D1802C17D834
:1026800080220D490D48FFF7CDFF4FF6FF7322461C
:1026900009490A4800F0C6FA09480068016821F0B3
:1026A00004010160BDE8104080210348FDF7EABD48
:1026B00010BD000000480040E80200201401002086
:1026C000A8010020704770B5044690F884000128E6
:1026D0001DD0012084F884002420C4F888002068DC
:1026E0000568026822F0010202602068826822F018
:1026F00060620A438260204601F046F82068056067
:102700002020C4F88800002084F8840070BD0220D6
:1027100070BD70B5044690F8840001281DD00120DA
:1027200084F884002420C4F88800206805680268C2
:1027300022F0010202602068826822F060420A43AF
:102740008260204601F020F8206805602020C4F84F
:102750008800002084F8840070BD022070BD70479E
:102760007047000010B500680A49884210D18022E5
:1027700009490A48FFF756FF09480068016821F037
:1027800004010160BDE8104080210348FDF77ABDD7
:1027900010BD000000480040E802002014010020A5
:1027A000A80100202DE9F04103680446D8691968A2
:1027B0009A6840F60F0528424FF000054FF00206D8
:1027C0000AD187067ED501F0200702F0805C57EA27
:1027D0000C0777D0616F42E1B64FDFF8DCC21740DB
:1027E00001EA0C0C57EA0C0C6CD05FEAC07C0CD0F0
:1027F0005FEAC15C09D54FF0010CC3F820C0D4F8E2
:10280000903043F00103C4F89030830709D5D30713
:1028100007D023681E62D4F8903043F00403C4F854
:10282000903043070AD5D30708D0266804233362C3
:10283000D4F8903043F00203C4F8903003070CD56D
:1028400001F020033B4308D0266808233362D4F804
:10285000903043F00803C4F8903003050BD54B01CA
:1028600009D526684FF400633362D4F8903043F002
:102870002003C4F89030D4F89030002B3DD080066F
:1028800009D501F0200002F08051084303D0616FA8
:1028900009B120468847D4F8900021688968490624
:1028A00002D410F0280F2AD0204601F0DFF820686B
:1028B000806840061ED52068083050E8001F21F0CF
:1028C000400100E021E040E80012002AF3D1D4F8F2
:1028D000800078B179498163D4F88000FEF7B0F8C0
:1028E00000280AD0D4F88000816B00E02046BDE8C3
:1028F000F04108472046FFF735FFBDE8F08120464C
:10290000FFF730FFC4F89050F7E7D4F86CC02027E9
:10291000BCF1010F7ED15FEAC06C7BD55FEAC16C70
:1029200078D51020186220688068400651D5D4F808
:1029300080100A6850680004000C3ED0B4F85C3087
:1029400083423AD9A4F85E000868006880062CD457
:10295000216851E8000F20F4807041E80002002A4D
:10296000F6D12068083050E8001F21F0010140E84E
:102970000012002AF5D12068083050E8001F21F02D
:10298000400140E80012002AF5D1C4F88C70E566D9
:10299000216851E8000F20F0100041E80002002AF1
:1029A000F6D1D4F88000FEF713F82667B4F85C007F
:1029B000B4F85E10401A81B207E0B4F85C108142AE
:1029C0009BD11068800698D526672046FFF750FEF9
:1029D00093E7B4F85C00B4F85E10401A81B2B4F822
:1029E0005E00002889D0002987D0226852E8000FB5
:1029F00020F4907042E80003002BF6D12D4BDB430E
:102A00002068083050E8002F1A4040E8002CBCF144
:102A1000000F00E00EE0F3D1C4F88C70E566656746
:102A2000206850E8002F22F0100240E80023002B1D
:102A3000F6D1C9E7C60209D5560207D54FF4801072
:102A400018622046BDE8F041FFF78ABE03060AD5AA
:102A500001F0800302F40002134304D0A16F0029A7
:102A60007FF444AF49E7420611D54A060FD5204608
:102A7000016851E8002F22F0400241E80023002BBA
:102A8000F6D1C0F88870856700F027F935E70202B3
:102A900006D54A0004D52046BDE8F041FFF75FBEE9
:102AA000C00195D5002993DA2046BDE8F041FFF733
:102AB00009BE000001000010200100044139000897
:102AC00010B5040003D0D4F8880010B107E001204D
:102AD00010BD002084F88400204600F027F8242050
:102AE000C4F888002068016821F001010160A06A33
:102AF00010B1204600F06AFE204600F0F9FF0128E0
:102B0000E6D02068416821F49041416020688168E6
:102B100021F02A0181602068016841F00101016013
:102B20002046BDE8104000F0B5BE0000F0B597B0FB
:102B30000646142111A8FDF7A5FB44216846FDF7C0
:102B4000A1FB3249306888425DD104200024009006
:102B500003946846FEF7F2FA08B1FDF737FF2C48F8
:102B6000816D41F480218165816D01F48021169190
:102B7000C16C41F00201C164C06C11A900F00200F7
:102B800016904FF4406011900220CDE91204072006
:102B9000CDE914401F48FEF7A7F8204D1E488027B6
:102BA00028601C20C5E90104C5E903476C61AC61DC
:102BB000EC6128462C62FDF7DDFF08B1FDF706FF4A
:102BC000C6F88050AE62154D134860351430286049
:102BD0001D20686005F10801102081E891006C61FA
:102BE000AC61EC6128462C62FDF7C4FF08B1FDF72B
:102BF000EDFEF567002211462720AE62FEF706FAC9
:102C00002720FEF7F5F917B0F0BD0000004800409E
:102C1000001002400004004808000240A801002003
:102C2000704770472DE9F84F0446D0F88800984661
:102C300015460E46202802D00220BDE8F88F96B334
:102C40008DB30020C4F890004FF02109C4F888909B
:102C50001834FEF775F9A5878246E58754F8100CFD
:102C6000183CB0F5805F01D1206910B135460026CF
:102C700000E000255FF02007B4F8560053464FF0FF
:102C80000002CDF80080D8B18021204601F0BEF8C6
:102C9000D8B955B115F8010B21688862D4F88810AD
:102CA00039EA010006D00120C7E736F8020BC0F36D
:102CB0000800F1E7B4F85600401EA4F85600DBE720
:102CC0004021204601F0A2F818B1C4F88870032012
:102CD000B3E7C4F888700020AFE77047FEE7000054
:102CE000114808B5816C41F004018164816C01F0E8
:102CF00004010091816C41F001018164806C00222B
:102D000000F00100009011460B20FEF77FF90B2028
:102D1000FEF76EF9002211460C20FEF777F9BDE8A8
:102D200008400C20FEF764B9001002402DE9F04184
:102D300086B014216846FDF7A5FA2B48C16C41F016
:102D40000401C164C16C01F004010591C16C41F042
:102D50002001C164C16C01F020010591C16C41F0FA
:102D60000101C164C16C01F001010591C16C41F028
:102D70000201C164C06C4FF0904700F00200059062
:102D8000012210213846FEF7D6F8DFF860800122D4
:102D900050214046FEF7CFF878140026CDE9000612
:102DA0000225694602954046FDF79EFF012410204A
:102DB000CDE9000469463846CDE90245FDF794FFA8
:102DC0005020CDE9000469464046CDE90245FDF7B3
:102DD0008BFFE002CDE90006694602944046FDF70C
:102DE00083FF06B0BDE8F0810010024000080048F3
:102DF000124810B5104901604FF482714160002102
:102E00004FF4E062C0E90212022202610122426133
:102E1000520282612822C0E9072107224162C0E9EB
:102E20000A1201634163FEF717FE002803D0BDE8D4
:102E30001040FDF7CBBD10BD003001401800002050
:102E400010B59CB0002419941A94179418941494F3
:102E500015941C210DA81694FDF714FA3421684628
:102E6000FDF710FA354834490160142141602021F2
:102E7000816040F28F11C0E903148021C0E905414F
:102E8000FFF783F808B1FDF7A1FD4FF480501790CC
:102E900017A92A48FFF730F908B1FDF797FD274831
:102EA000FFF759FB08B1FDF791FD1494159414A98F
:102EB00022481694FFF71AF808B1FDF787FD602045
:102EC000CDE90D040F9410941194129400220DA9D1
:102ED0001A481394FFF7ADFA08B1FDF777FD042205
:102EE0000DA91648FFF7A5FA08B1FDF76FFD0822F6
:102EF0000DA91248FFF79DFA08B1FDF767FD009490
:102F00004FF40050CDE9044003940003CDE908409C
:102F100001940294069407940A940B946946074816
:102F20000C94FEF791FF08B1FDF750FD0348FFF741
:102F300035FA1CB010BD0000002C01407C000020C0
:102F40003EB500240F48009401940D49029401609D
:102F50005321C0E9011440F2E731C1608021816151
:102F6000FFF713F808B1FDF731FD009469460548F5
:102F70000294FEF7BBFF002801D0FDF727FD3EBD00
:102F800000100040C8000020184810B51649016024
:102F90004FF4E1314160002181600C22C160C0E941
:102FA00004128161C161016241628162FFF788FDA3
:102FB00008B1FDF70BFD00210C48FFF7AAFB08B193
:102FC000FDF704FD00210948FFF77DFB08B1FDF77F
:102FD000FDFC0648FFF707FB002803D0BDE81040C2
:102FE000FDF7F4BC10BD00000048004014010020B3
:102FF000FEE7FEE77047F8B515460E460B46009211
:10300000044600224FF4C05100F01AF888B9334644
:10301000002280212046009500F082F848B933460E
:1030200000224FF4C0612046009500F009F8002806
:1030300004D0206E40F0200020660320F8BD000080
:103040002DE9FE4F4FF0000A984617460E460446FB
:103050000C9D8DF804A0FDF773FF411BA8EB010543
:10306000FDF76EFF814620684FF4C06B0C30029074
:103070002A480068C0EBC00000EB8000000D6843E8
:10308000009016E05E4506D12FB9029800788DF8C1
:1030900004009DF80400B8F1FF3F0AD0FDF750FF8F
:1030A000A0EB0900A8420CD25DB1009898B3401E75
:1030B0000090206880683040B842E3D10020BDE82D
:1030C000FE8F2068416821F0E00141606068B0F542
:1030D000827F0BD1A068B0F5004F02D0B0F5806FB1
:1030E00004D12068016821F040010160A06AB0F5B8
:1030F000005F09D12068016821F400510160206857
:10310000016841F400510160012084F85D0084F8F9
:103110005CA00320D3E7FFE70025CAE70C000020EE
:103120002DE9F8431E46914688460446089DFDF762
:1031300007FF401B351AFDF703FF074626480068C6
:10314000C0F3CB3068430AE0701C09D0FDF7F8FEED
:10315000C01BA8420FD275B10098B8B3401E0090B2
:103160002068816838EA010033D000214945EBD15D
:103170000020BDE8F8832068416821F0E00141604B
:103180006068B0F5827F0BD1A068B0F5004F02D027
:10319000B0F5806F04D12068016821F04001016022
:1031A000A06AB0F5005F09D12068016821F40051E0
:1031B00001602068016841F400510160012084F839
:1031C0005D00002084F85C000320D2E7FFE70025C3
:1031D000C6E70121CAE700000C0000207047FDF798
:1031E000B5BE00B593B038216846FDF74BF8142101
:1031F0000EA8FDF747F80020FDF73AFF0220C101B5
:103200000391402104910121CDE90801009015218D
:10321000CDE90A1007900C900D906846FEF71AFA57
:1032200008B172B6FEE70F200E9003200F90002029
:1032300010901190129004210EA8FEF7C3F80028F8
:1032400001D072B6FEE713B000BD0000024801686D
:1032500041F470010160704788ED00E00148FEF71D
:10326000CCBF00007C0000200148FEF7C6BF000074
:103270007C0000200148FEF7C0BF00007C00002059
:103280000148FEF7BABF00007C0000200148FEF7AD
:10329000B4BF0000C800002004480178491CC9B22E
:1032A0000170642901D300210170704710000020D3
:1032B00005484188491C89B24180B1F57A7F01D324
:1032C0000021418070470000100000202DE9F043EC
:1032D0000268254B254D264E264C4FF080499842DA
:1032E00007D0484505D0A84203D0B04201D0A04243
:1032F00003D122F070074A683A431F4FDFF87CC0C1
:10330000DFF87C8098420DD048450BD0A84209D008
:10331000B04207D0A04205D0B84203D0604501D0EA
:10332000404503D122F44075CA682A434D6922F012
:1033300080022A438D68C5620D688562984207D075
:10334000A04205D0B84203D0604501D0404501D12C
:1033500009690163016841F00401016001214161D3
:103360000260BDE8F0830000002C01400004004032
:10337000000800400034014000400140004401408A
:103380000048014010B5846842EA032224F47F44D7
:103390000A432243826010BD8268034B1A400A43ED
:1033A00042F00701816070478FFFCFFF2DE9F043A6
:1033B000056A026A22F001020262436882691E4CB9
:1033C00025F0020522400C6822F0030214438A68AB
:1033D0001B4E2A43194D1B4FDFF86CC0DFF86C9071
:1033E000A84207D0B04205D0B84203D0604501D012
:1033F00048450AD1D0F8208028F00408C0F8208081
:1034000022F00808CA6842EA0802A84207D0B0427F
:1034100005D0B84203D0604501D0484505D14D697B
:1034200023F440731D438B692B43436084614968D7
:1034300041630262BDE8F0838FFFFEFF002C014074
:103440000034014000400140004401400048014078
:10345000F0B5056A026A22F01002026242688369CE
:103460001A4C1C4E23400C6823F4407343EA042496
:1034700025F020038D6843EA0513154DA84201D0BD
:10348000B04208D1076A27F040070762CF6823F0EF
:10349000800343EA0713A8420AD0B04208D00E4D79
:1034A000A84205D00D4DA84202D00D4DA84207D12B
:1034B0004D6922F4406242EA85028D6942EA850242
:1034C00042608461496881630362F0BDFF8FFFFE43
:1034D000002C014000340140004001400044014004
:1034E00000480140F0B5056A026A22F48072026267
:1034F0004268C3691A4C1C4E23400C6823F0030336
:103500001C4325F400738D6843EA0523154DA8423A
:1035100001D0B04208D1076A27F480670762CF68FC
:1035200023F4006343EA0723A8420AD0B04208D03C
:103530000E4DA84205D00E4DA84202D00D4DA84216
:1035400007D14D6922F4405242EA05128D6942EAE0
:1035500005124260C4614968C1630362F0BD0000A6
:103560008FFFFEFF002C014000340140004001406D
:103570000044014000480140F0B5056A026A22F4A7
:10358000805202624268C3691A4C1C4E23400C6888
:1035900023F4407343EA042425F400538D6843EA7E
:1035A0000533154DA84201D0B04208D1076A27F46F
:1035B00080470762CF6823F4004343EA0733A842F9
:1035C0000AD0B04208D00E4DA84205D00D4DA842F9
:1035D00002D00D4DA84207D14D6922F4404242EA83
:1035E00085128D6942EA85124260C46149680164AE
:1035F0000362F0BDFF8FFFFE002C0140003401404C
:1036000000400140004401400048014030B5056AD7
:10361000026A22F4803202624268036D114C234038
:103620000C681C4325F400330D8943EA05430E4D15
:10363000A8420BD00D4DA84208D00D4DA84205D090
:103640000C4DA84202D00C4DA84204D14D6922F481
:10365000803242EA0522426004654968816403625F
:1036600030BD00008FFFFEFF002C01400034014000
:1036700000400140004401400048014030B5046A68
:10368000026A22F4801202624268036D114D24F432
:1036900000142B400D6843EA05230D8944EA0554C4
:1036A0000D4DA8420BD00D4DA84208D00C4DA8429C
:1036B00005D00C4DA84202D00B4DA84204D14D6953
:1036C00022F4802242EA8522426003654968C1648F
:1036D000046230BDFF8FFFFE002C0140003401402A
:1036E00000400140004401400048014010B5036A19
:1036F000046A24F0010404620E4CA0420BD00E4C6C
:10370000A04208D00D4CA04205D00D4CA04202D0E2
:103710000C4CA04203D1046A24F0040404628469BE
:1037200024F0F00444EA021423F00A020A438461FC
:10373000026210BD002C01400034014000400140F5
:10374000004401400048014010B5036A046A24F0B7
:10375000100404620A4CA04202D00A4CA04203D1D9
:10376000046A24F040040462846923F0A00324F472
:10377000704444EA023243EA01118261016210BDE1
:10378000002C01400034014030B5416EB9B10268EF
:1037900091689268C1F342610B4B520F9C5CE5004B
:1037A00003F10804A25CB5FBF2F2A0F86A205A5CAF
:1037B000615CD200B2FBF1F1A0F8681030BD0121CC
:1037C000A0F86A10F8E700006048000890F8281098
:1037D000090706D501684A68836B22F400421A4340
:1037E0004A6090F82810C90706D001684A68C36A81
:1037F00022F400321A434A6090F82810890706D54F
:1038000001684A68036B22F480321A434A6090F8D8
:103810002810490706D501684A68436B22F48022C4
:103820001A434A6090F82810C90606D501688A68CC
:10383000C36B22F480521A438A6090F828108906DC
:1038400006D501688A68036C22F400521A438A6024
:1038500090F82810490611D501684A68436C22F493
:1038600080121A434A60416CB1F5801F06D101688D
:103870004A68836C22F4C0021A434A6090F8281008
:10388000090606D501684A68C06C22F4002202438A
:103890004A6070472DE9F84300260446C0F890605E
:1038A000FDF74EFB8046206800684FF020050007BA
:1038B0006FF07E4713D54346002229042046009727
:1038C00000F0A4FA58B1216851E8000F20F0800000
:1038D00041E80002002AF6D1C4F8885021E02068AF
:1038E0000068400722D5434600224FF4800120465D
:1038F000009700F08BFAC8B1216851E8000F20F45E
:10390000907041E80002002AF6D12068083050E8A3
:10391000001F21F0010140E80012002AF5D1C4F88F
:103920008C5084F884600320BDE8F883C4F8885084
:10393000C4F88C5044F86C6F666026760020F3E77C
:1039400010B5806AFEF70EFF10BD70B5846AD4F81A
:103950008800D4F88C5021688968090604D521288C
:1039600002D1204600F0ACF820688068400604D5FB
:10397000222D02D1204600F079F8D4F8900040F0D2
:103980001000C4F890002046FEF7ECFE70BD70B544
:103990000146806A0A6812684FF0000392062DD42F
:1039A000A0F85E30046854E8002F22F4807244E8E6
:1039B0000025002DF6D10268083252E8004F24F0AD
:1039C000010442E80045002DF5D10268083252E8B2
:1039D000004F24F0400442E80045002DF5D120229C
:1039E000C0F88C20C26E012A08D1046854E8002F68
:1039F00022F0100244E80025002DF6D10367C26EC4
:103A0000012A02D0FFF70CF970BDA0F85E300968FA
:103A10004968B0F85C2089B28A4201D9A0F85E10EA
:103A2000B0F85E10511A89B2FEF722FE70BD10B5D3
:103A30000246806A01210167C16E012902D0FFF7A9
:103A4000F0F810BDB0F85C104B08A0F85E301268BA
:103A5000526892B2914201D3A0F85E20B0F85E2085
:103A6000891A89B2FEF704FE10BD000010B5026885
:103A700052E8001F21F4907142E80013002BF6D1A8
:103A80000E4B0268083252E8001F194042E8001449
:103A9000002CF6D1C16E012908D1016851E8002F30
:103AA00022F0100241E80023002BF6D12021C0F8BB
:103AB0008C100021C166416710BD0000FEFFFFEFC2
:103AC000026852E8001F21F0C00142E80013002BF9
:103AD000F6D10168083151E8002F22F4000241E8D4
:103AE0000023002BF5D12021C0F88810704700007A
:103AF0002DE9F0410446016880682269E3691043BA
:103B0000626900251A431043DFF82CC20A688B4B08
:103B10001A4002430A6020684168E26821F440517B
:103B2000114341602168A069614501D0226A1043B8
:103B30008A68834B1A4002438A602068C16A626ABD
:103B400021F00F011143C1627E4923687E488B42F8
:103B50000DD1D0F8880010F0030006D0012855D010
:103B6000022842D003283FD152E001203DE07749AE
:103B70008B420BD1D0F8880010F00C0035D004280F
:103B800033D0082840D00C282ED141E070498B4218
:103B90000BD1D0F8880010F0300026D0102835D096
:103BA000202831D030281FD132E06A498B420BD116
:103BB000D0F8880010F0C00017D0402826D0802808
:103BC00022D0C02810D123E063450DD1D0F8880061
:103BD00010F4406009D0B0F5806F17D0B0F5006FD9
:103BE00012D0B0F5406F13D010205B495B4F002618
:103BF0004FF4004263453BD160B1022813D0042842
:103C00000BD0082872D10DE00220EEE70420ECE78B
:103C10000820EAE7FDF7C4FC01E0FDF7E5FC010040
:103C200001D17CE01146606A37F810206768B1FB6B
:103C3000F2F007EB4703834270D8B0EB073F6DD833
:103C4000002308461946FCF7E5FA090241EA10612B
:103C500002027808101871413A460023FCF7DAFA9C
:103C60003F4AA0F54071914258D82168C86056E09B
:103C7000E3694FF6EF7893422CD109284ED2DFE862
:103C800000F00508114D0D4D4D4D1000FDF788FC5D
:103C900001E0FDF797FC010004D140E0FDF7A4FC32
:103CA000F9E71146606A37F81000B1FBF0F0410007
:103CB000606801EB5001B1FBF0F0A0F1100141454B
:103CC0002CD84FF6F0710140C0F342000143206848
:103CD000C16024E0092821D2DFE800F005091220A4
:103CE0000E2020201100FDF75BFC02E016E0FDF73E
:103CF00069FC010004D112E0FDF776FCF9E71146FA
:103D0000606A37F81000B1FBF0F1606801EB500118
:103D1000B1FBF0F0A0F1100141450AD901250120C5
:103D2000A4F86A0024F8680F2846E6602661BDE81A
:103D3000F08180B299E7000000800040F369FFCF76
:103D4000FFF4FF1100380140001002400044004021
:103D500000480040004C00400024F400484800089F
:103D6000FFFC0F0070B58165A0F85C2000210446BF
:103D7000C0F890102220C4F88C00D4F88000F0B174
:103D80001F4BC362D4F880301E481863D4F88030CB
:103D90001D485863D4F8800013468163A56D2168DF
:103DA0002A462431D4F88000FCF746FF38B11020B1
:103DB000C4F890002020C4F88C00012070BD206958
:103DC00040B1216851E8000F40F4807041E80002E2
:103DD000002AF6D12068083050E8001F41F00101A8
:103DE00040E80012002AF5D12068083050E8001F92
:103DF00041F0400140E80012002AF5D1002070BDDA
:103E00008F3900082F3A00084B3900082DE9F04798
:103E1000994617460D4604464FF00008089E33E0C9
:103E2000701C31D0FDF78CF8A0EB0900B04218D817
:103E3000BEB120680168490726D5802D24D0402DC9
:103E400022D0C169C94309070DD40825056220465F
:103E5000FFF70CFEC4F8905084F884800120BDE880
:103E6000F0870320FBE7C069C04300050CD421683C
:103E70004FF4006008622046FFF7F8FD2020C4F8E8
:103E8000900084F88480ECE72068C06935EA00007F
:103E900004D00020B842C3D00020E0E70120F9E7B9
:103EA0000148FEF77FBC000014010020FEE700007F
:103EB0000FB4054B10B503A9044A029800F0EAF8C4
:103EC00010BC5DF814FB00009D47000814000020A2
:103ED0000907090E002804DB00F1E02080F8001437
:103EE000704700F00F0000F1E02080F8141D7047CB
:103EF00002E008C8121F08C1002AFAD170477047B3
:103F0000002001E001C1121F002AFBD17047000010
:103F10002DE9FF5F82B00021DDE90430020DDDF8FC
:103F200040B0034318D044F61050A2F2FF3242438F
:103F30001514119801281FD0A5EB0B00401C5FEA57
:103F4000000A4FF000064E4FDFF83891B046504659
:103F500015D5CAF1000413E0119801244AA30128E1
:103F600001D16FEA0B010298119AC0E90031C0E952
:103F7000024206B0BDE8F09FCBF10000DFE7044647
:103F80000021404A491842EB0450CDE9001012E0EC
:103F9000E00707D032463B4640464946FCF76CFAFC
:103FA0008046894632463B4610461946FCF764FA7D
:103FB00006460F466410002CEAD1DDE90401DDE974
:103FC0000023BAF1000F06DAFCF756FA42464B46D8
:103FD000FCF752FA05E0FCF7C1FA42464B46FCF703
:103FE000BDFA04460E460022284BFCF73FFB03D8DF
:103FF0004FF0FF30014607E00022254B20463146B6
:10400000FCF793F9FCF719FB102409E0002C0ADBFC
:104010000A220023FCF7FEF8039B30321A55641E77
:1040200050EA0102F2D1641C039AC4F11103144452
:10403000119A012A03D0012208430DD10AE0084356
:1040400004D000204FF0110B119072E7A3EB0B0589
:104050006D1E0DE05B4504DD4FF0000205F101052A
:1040600004E003DA4FF00002A5F10105002AECD0CC
:1040700002981199C0E90231C0E9004579E70000D2
:10408000000014400000F03F300000000000F0434A
:104090000000E03F2DE9FF4F95B09A46884606465E
:1040A0000025EEE1252877D100242746F94A012191
:1040B000039400E0044316F8013F203B01FA03F0AB
:1040C0001042F7D130782A2811D06FF02F033078C2
:1040D000A0F13002092A16D8039A44F0020402EB38
:1040E000820203EB42021044761C0390EFE758F87B
:1040F000042B0392002A03DA504244F40054039044
:1041000044F00204761C30782E2816D116F8010FE0
:1041100044F004042A280DD06FF02F023078A0F16B
:104120003003092B09D807EB870302EB4303C718B9
:10413000761CF3E758F8047B761C30786C280FD097
:1041400006DC4C2817D068280DD06A2814D104E06A
:10415000742810D07A280FD10DE044F400140AE03E
:1041600044F4801401E044F440147278824202D195
:1041700004F58014761C761C307866280BD013DC8E
:10418000582877D009DC002875D04528F6D0462875
:10419000F4D047281AD193E118E0632835D0642879
:1041A00079D0652812D18BE1702873D008DC67289C
:1041B000F1D069286FD06E280DD06F2806D1ACE001
:1041C00073282CD0752874D0782853D0524617996C
:1041D00090476D1C54E1C4F30250022809D0032813
:1041E0000DD0D8F8001004280DD00D6008F1040897
:1041F00046E1D8F80010EA17C1E90052F6E7D8F80E
:1042000000100D80F2E70D70F0E718F8041B8DF830
:10421000001000208DF80100EB46012003E058F863
:1042200004BB4FF0FF3061074FF0000102D40DE0F6
:1042300009F101018946B9420FDA8145F8DB1BF823
:1042400009100029F4D108E009F1010189468142F1
:10425000FADB1BF809100029F6D103985346A0EBAE
:10426000090721463846179A00F080FA284400EBE7
:10427000090507E044E008E10DE01BF8010B524698
:1042800017999047B9F10109F7D2534621463846AC
:10429000179AF2E039E00A21C4F302524FF0000B02
:1042A0000091022A06D058F8040BC117032A09D03E
:1042B0000AE023E008F1070020F00702F2E802011B
:1042C000904605E000B2C117042A01D140B2C117DF
:1042D000002906DA0A460021404261EB02012D2244
:1042E00002E0220504D52B228DF80420012203E0F0
:1042F000E20701D02022F7E7914657E00A2100E0CB
:1043000010214FF0000B00910BE010214FF0000B3B
:1043100044F004040827009103E008204FF0000B4C
:104320000090C4F30252022A05D058F8040B002171
:10433000032A08D008E008F1070020F00702F2E89D
:104340000201904603E080B2042A00D1C0B24FF0CF
:10435000000922072AD53278702A07D0DDF800C07C
:104360008CF0100C5CEA0B0C05D00EE040228DF8AE
:104370000420012208E050EA010306D030238DF822
:1043800004308DF8052002229146009B83F008033B
:1043900053EA0B030AD150EA010201D1620705D5A5
:1043A00030228DF804204FF001097F1E3278582A00
:1043B00004D039A20C920CAA02920BE03BA2F9E7BE
:1043C0005B46009AFBF726FF0C9B9B5C029A521EF1
:1043D0000292137050EA0102F2D1029804A9081A5D
:1043E00000F1200B600702D524F4803400E001279F
:1043F0005F4502DDA7EB0B0000E0002000EB0B01A6
:10440000009003984944401A0390E00306D45346B1
:104410002146179A039800F0A9F90544002706E001
:1044200001A85246C05D179990476D1C7F1C4F45EF
:10443000F6DBE0030CD553462146179A039800F0AB
:1044400095F9054404E030205246179990476D1CB9
:104450000099481E00900029F5DC08E002980299B6
:1044600052460078491C0291179990476D1CBBF188
:104470000001ABF1010BF1DC5BE100F065F90544F3
:10448000761C307800287FF40DAE19B02846BDE8C0
:10449000F08F0000092801003031323334353637CF
:1044A0003839616263646566000000003031323380
:1044B0003435363738394142434445460000000020
:1044C000600700D4062708F1070020F00700F0E895
:1044D0000223804603F0004C5FEA0C0001D097A055
:1044E00009E0200501D596A005E0E00701D095A0E0
:1044F00001E0AFF24C001390307823F000436528C0
:104500000CD006DC452809D046281DD047287FD18D
:104510003BE0662818D067287AD136E00021112FB9
:1045200001DB112000E0781CCDE9000104A90CA8F2
:10453000FFF7EEFCDDE90D010C9A4FF0000B07F1DF
:104540000109109200914EE04FF000400097CDE934
:10455000011004A90CA8FFF7DBFCDDE90D020C9BA0
:104560000F994FF0000B91461093009211B9791CEE
:1045700000EB0109B7EB090003D4C0F1FF3B07F1E1
:104580000109A9EB0700019042E0012F00DA0127A1
:104590000021112F01DD112000E03846CDE9000196
:1045A00004A90CA8FFF7B4FCDDE90D010C9A0091F9
:1045B0004FF0000BB946109221070FD4009A4A45DC
:1045C00003DA914601E0A9F10109B9F1010F05DD16
:1045D000109AA9F10101515C3029F4D0B84202DAF5
:1045E00010F1040F03DA0121CDE9011010E00028D9
:1045F00003DC8344A9EB000102E0411C494500DDD6
:104600008946A0EB0B00401C01904FF00040029047
:10461000200705D40198484502DB4FF0FF30019098
:1046200000208DF84B0002980DF14B07B0F1004FC0
:1046300025D002200C902B200D90029800280CDA37
:10464000404202902D200D9007E00A210298FBF7CE
:1046500037FE3031029007F8011D0C99481E0C906E
:104660000029F2DC02980028EFD1791E0D9808701D
:10467000307800F0200040F0450007F8020D11A846
:10468000C01BC01D02901398007800B1012000EB00
:104690000901019801EBE071029801440398401A66
:1046A000401E0390E00306D453462146179A039810
:1046B00000F05CF805441398007818B15246179939
:1046C00090476D1CE00323D553462146179A039863
:1046D00000F04CF805441BE0BBF1000F07DB00982D
:1046E000584504DD1098179910F80B0001E0179950
:1046F00030205246904701980BF1010B401E05F106
:104700000105019004D12E205246179990476D1C47
:10471000B9F10001A9F10109DEDC05E017F8010B90
:104720005246179990476D1C0299481E0290002925
:10473000F4DC53462146179A03989EE62D000000AC
:104740002B000000200000002DE9F0410446002568
:104750001E461746880404D405E039462020B04799
:104760006D1C641EF9D52846BDE8F0812DE9F041A5
:10477000044600251E469046C80301D5302700E0B8
:104780002027880404D505E041463846B0476D1C13
:10479000641EF9D52846BDE8F081000013B54FF03E
:1047A000FF33012269460248FEF73CFA00981CBD1F
:1047B0001401002008B5FCF7D1FBFEF712FDFEF74F
:1047C000B5FAFEF78DFAFEF7DFFBFEF711FBFEF7F9
:1047D00037FBFEF7B5FBFCF72DF8FCF71DF811A031
:1047E000FFF766FB0120FBF7EDFF0120FBF7F6FF6B
:1047F0006420FCF767FAFBF7DFFFFCF7A7F8FCF78C
:1048000093F810EE104AFBF7CBFF05462046FBF766
:1048100044FD41EC100B05A053EC102B0095FFF765
:1048200047FBE5E731323334350A0000445249563C
:1048300045525F4D54363831363A25662C4B455932
:104840003A25640A0000000001000200040006008E
:1048500008000A000C001000200040008000000149
:10486000010101030701000008040204080101011D
:104870000000000000000000010203040607080910
:104880000000000001020304A84800080000002006
:1048900018000000F03E0008C04800081800002082
:1048A000580B0000003F000810000000010000004D
:1048B000000000000024F4000000000000000000E0
:04000005080001D915
:00000001FF
